{
  "abi": [
    {
      "inputs": [
        {
          "internalType": "uint32",
          "name": "cycleSecs_",
          "type": "uint32"
        }
      ],
      "stateMutability": "nonpayable",
      "type": "constructor"
    },
    {
      "anonymous": false,
      "inputs": [
        {
          "indexed": false,
          "internalType": "address",
          "name": "previousAdmin",
          "type": "address"
        },
        {
          "indexed": false,
          "internalType": "address",
          "name": "newAdmin",
          "type": "address"
        }
      ],
      "name": "AdminChanged",
      "type": "event"
    },
    {
      "anonymous": false,
      "inputs": [
        {
          "indexed": true,
          "internalType": "address",
          "name": "beacon",
          "type": "address"
        }
      ],
      "name": "BeaconUpgraded",
      "type": "event"
    },
    {
      "anonymous": false,
      "inputs": [
        {
          "indexed": true,
          "internalType": "bytes32",
          "name": "receiversHash",
          "type": "bytes32"
        },
        {
          "indexed": true,
          "internalType": "uint256",
          "name": "userId",
          "type": "uint256"
        },
        {
          "indexed": false,
          "internalType": "BeamsConfig",
          "name": "config",
          "type": "uint256"
        }
      ],
      "name": "BeamsReceiverSeen",
      "type": "event"
    },
    {
      "anonymous": false,
      "inputs": [
        {
          "indexed": true,
          "internalType": "uint256",
          "name": "userId",
          "type": "uint256"
        },
        {
          "indexed": true,
          "internalType": "uint256",
          "name": "assetId",
          "type": "uint256"
        },
        {
          "indexed": true,
          "internalType": "bytes32",
          "name": "receiversHash",
          "type": "bytes32"
        },
        {
          "indexed": false,
          "internalType": "bytes32",
          "name": "beamsHistoryHash",
          "type": "bytes32"
        },
        {
          "indexed": false,
          "internalType": "uint128",
          "name": "balance",
          "type": "uint128"
        },
        {
          "indexed": false,
          "internalType": "uint32",
          "name": "maxEnd",
          "type": "uint32"
        }
      ],
      "name": "BeamsSet",
      "type": "event"
    },
    {
      "anonymous": false,
      "inputs": [
        {
          "indexed": true,
          "internalType": "uint256",
          "name": "userId",
          "type": "uint256"
        },
        {
          "indexed": true,
          "internalType": "uint256",
          "name": "assetId",
          "type": "uint256"
        },
        {
          "indexed": false,
          "internalType": "uint128",
          "name": "amt",
          "type": "uint128"
        }
      ],
      "name": "Collectable",
      "type": "event"
    },
    {
      "anonymous": false,
      "inputs": [
        {
          "indexed": true,
          "internalType": "uint256",
          "name": "userId",
          "type": "uint256"
        },
        {
          "indexed": true,
          "internalType": "uint256",
          "name": "assetId",
          "type": "uint256"
        },
        {
          "indexed": false,
          "internalType": "uint128",
          "name": "collected",
          "type": "uint128"
        }
      ],
      "name": "Collected",
      "type": "event"
    },
    {
      "anonymous": false,
      "inputs": [
        {
          "indexed": true,
          "internalType": "uint32",
          "name": "driverId",
          "type": "uint32"
        },
        {
          "indexed": true,
          "internalType": "address",
          "name": "oldDriverAddr",
          "type": "address"
        },
        {
          "indexed": true,
          "internalType": "address",
          "name": "newDriverAddr",
          "type": "address"
        }
      ],
      "name": "DriverAddressUpdated",
      "type": "event"
    },
    {
      "anonymous": false,
      "inputs": [
        {
          "indexed": true,
          "internalType": "uint32",
          "name": "driverId",
          "type": "uint32"
        },
        {
          "indexed": true,
          "internalType": "address",
          "name": "driverAddr",
          "type": "address"
        }
      ],
      "name": "DriverRegistered",
      "type": "event"
    },
    {
      "anonymous": false,
      "inputs": [
        {
          "indexed": true,
          "internalType": "uint256",
          "name": "userId",
          "type": "uint256"
        },
        {
          "indexed": true,
          "internalType": "uint256",
          "name": "receiver",
          "type": "uint256"
        },
        {
          "indexed": true,
          "internalType": "uint256",
          "name": "assetId",
          "type": "uint256"
        },
        {
          "indexed": false,
          "internalType": "uint128",
          "name": "amt",
          "type": "uint128"
        }
      ],
      "name": "Given",
      "type": "event"
    },
    {
      "anonymous": false,
      "inputs": [
        {
          "indexed": true,
          "internalType": "address",
          "name": "currentAdmin",
          "type": "address"
        },
        {
          "indexed": true,
          "internalType": "address",
          "name": "newAdmin",
          "type": "address"
        }
      ],
      "name": "NewAdminProposed",
      "type": "event"
    },
    {
      "anonymous": false,
      "inputs": [
        {
          "indexed": true,
          "internalType": "address",
          "name": "pauser",
          "type": "address"
        }
      ],
      "name": "Paused",
      "type": "event"
    },
    {
      "anonymous": false,
      "inputs": [
        {
          "indexed": true,
          "internalType": "address",
          "name": "pauser",
          "type": "address"
        },
        {
          "indexed": true,
          "internalType": "address",
          "name": "admin",
          "type": "address"
        }
      ],
      "name": "PauserGranted",
      "type": "event"
    },
    {
      "anonymous": false,
      "inputs": [
        {
          "indexed": true,
          "internalType": "address",
          "name": "pauser",
          "type": "address"
        },
        {
          "indexed": true,
          "internalType": "address",
          "name": "admin",
          "type": "address"
        }
      ],
      "name": "PauserRevoked",
      "type": "event"
    },
    {
      "anonymous": false,
      "inputs": [
        {
          "indexed": true,
          "internalType": "uint256",
          "name": "userId",
          "type": "uint256"
        },
        {
          "indexed": true,
          "internalType": "uint256",
          "name": "assetId",
          "type": "uint256"
        },
        {
          "indexed": false,
          "internalType": "uint128",
          "name": "amt",
          "type": "uint128"
        },
        {
          "indexed": false,
          "internalType": "uint32",
          "name": "receivableCycles",
          "type": "uint32"
        }
      ],
      "name": "ReceivedBeams",
      "type": "event"
    },
    {
      "anonymous": false,
      "inputs": [
        {
          "indexed": true,
          "internalType": "uint256",
          "name": "userId",
          "type": "uint256"
        },
        {
          "indexed": true,
          "internalType": "uint256",
          "name": "receiver",
          "type": "uint256"
        },
        {
          "indexed": true,
          "internalType": "uint256",
          "name": "assetId",
          "type": "uint256"
        },
        {
          "indexed": false,
          "internalType": "uint128",
          "name": "amt",
          "type": "uint128"
        }
      ],
      "name": "Split",
      "type": "event"
    },
    {
      "anonymous": false,
      "inputs": [
        {
          "indexed": true,
          "internalType": "bytes32",
          "name": "receiversHash",
          "type": "bytes32"
        },
        {
          "indexed": true,
          "internalType": "uint256",
          "name": "userId",
          "type": "uint256"
        },
        {
          "indexed": false,
          "internalType": "uint32",
          "name": "weight",
          "type": "uint32"
        }
      ],
      "name": "SplitsReceiverSeen",
      "type": "event"
    },
    {
      "anonymous": false,
      "inputs": [
        {
          "indexed": true,
          "internalType": "uint256",
          "name": "userId",
          "type": "uint256"
        },
        {
          "indexed": true,
          "internalType": "bytes32",
          "name": "receiversHash",
          "type": "bytes32"
        }
      ],
      "name": "SplitsSet",
      "type": "event"
    },
    {
      "anonymous": false,
      "inputs": [
        {
          "indexed": true,
          "internalType": "uint256",
          "name": "userId",
          "type": "uint256"
        },
        {
          "indexed": true,
          "internalType": "uint256",
          "name": "assetId",
          "type": "uint256"
        },
        {
          "indexed": true,
          "internalType": "uint256",
          "name": "senderId",
          "type": "uint256"
        },
        {
          "indexed": false,
          "internalType": "uint128",
          "name": "amt",
          "type": "uint128"
        },
        {
          "indexed": false,
          "internalType": "bytes32[]",
          "name": "beamsHistoryHashes",
          "type": "bytes32[]"
        }
      ],
      "name": "SqueezedBeams",
      "type": "event"
    },
    {
      "anonymous": false,
      "inputs": [
        {
          "indexed": true,
          "internalType": "address",
          "name": "pauser",
          "type": "address"
        }
      ],
      "name": "Unpaused",
      "type": "event"
    },
    {
      "anonymous": false,
      "inputs": [
        {
          "indexed": true,
          "internalType": "address",
          "name": "implementation",
          "type": "address"
        }
      ],
      "name": "Upgraded",
      "type": "event"
    },
    {
      "anonymous": false,
      "inputs": [
        {
          "indexed": true,
          "internalType": "uint256",
          "name": "userId",
          "type": "uint256"
        },
        {
          "indexed": true,
          "internalType": "bytes32",
          "name": "key",
          "type": "bytes32"
        },
        {
          "indexed": false,
          "internalType": "bytes",
          "name": "value",
          "type": "bytes"
        }
      ],
      "name": "UserMetadataEmitted",
      "type": "event"
    },
    {
      "anonymous": false,
      "inputs": [
        {
          "indexed": true,
          "internalType": "contract IERC20",
          "name": "erc20",
          "type": "address"
        },
        {
          "indexed": true,
          "internalType": "address",
          "name": "receiver",
          "type": "address"
        },
        {
          "indexed": false,
          "internalType": "uint256",
          "name": "amt",
          "type": "uint256"
        }
      ],
      "name": "Withdrawn",
      "type": "event"
    },
    {
      "inputs": [],
      "name": "AMT_PER_SEC_EXTRA_DECIMALS",
      "outputs": [
        {
          "internalType": "uint8",
          "name": "",
          "type": "uint8"
        }
      ],
      "stateMutability": "view",
      "type": "function"
    },
    {
      "inputs": [],
      "name": "AMT_PER_SEC_MULTIPLIER",
      "outputs": [
        {
          "internalType": "uint160",
          "name": "",
          "type": "uint160"
        }
      ],
      "stateMutability": "view",
      "type": "function"
    },
    {
      "inputs": [],
      "name": "DRIVER_ID_OFFSET",
      "outputs": [
        {
          "internalType": "uint256",
          "name": "",
          "type": "uint256"
        }
      ],
      "stateMutability": "view",
      "type": "function"
    },
    {
      "inputs": [],
      "name": "MAX_DRIPS_RECEIVERS",
      "outputs": [
        {
          "internalType": "uint256",
          "name": "",
          "type": "uint256"
        }
      ],
      "stateMutability": "view",
      "type": "function"
    },
    {
      "inputs": [],
      "name": "MAX_SPLITS_RECEIVERS",
      "outputs": [
        {
          "internalType": "uint256",
          "name": "",
          "type": "uint256"
        }
      ],
      "stateMutability": "view",
      "type": "function"
    },
    {
      "inputs": [],
      "name": "MAX_TOTAL_BALANCE",
      "outputs": [
        {
          "internalType": "uint256",
          "name": "",
          "type": "uint256"
        }
      ],
      "stateMutability": "view",
      "type": "function"
    },
    {
      "inputs": [],
      "name": "TOTAL_SPLITS_WEIGHT",
      "outputs": [
        {
          "internalType": "uint32",
          "name": "",
          "type": "uint32"
        }
      ],
      "stateMutability": "view",
      "type": "function"
    },
    {
      "inputs": [],
      "name": "acceptAdmin",
      "outputs": [],
      "stateMutability": "nonpayable",
      "type": "function"
    },
    {
      "inputs": [],
      "name": "admin",
      "outputs": [
        {
          "internalType": "address",
          "name": "",
          "type": "address"
        }
      ],
      "stateMutability": "view",
      "type": "function"
    },
    {
      "inputs": [],
      "name": "allPausers",
      "outputs": [
        {
          "internalType": "address[]",
          "name": "pausersList",
          "type": "address[]"
        }
      ],
      "stateMutability": "view",
      "type": "function"
    },
    {
      "inputs": [
        {
          "internalType": "uint256",
          "name": "userId",
          "type": "uint256"
        },
        {
          "internalType": "contract IERC20",
          "name": "erc20",
          "type": "address"
        },
        {
          "components": [
            {
              "internalType": "uint256",
              "name": "userId",
              "type": "uint256"
            },
            {
              "internalType": "BeamsConfig",
              "name": "config",
              "type": "uint256"
            }
          ],
          "internalType": "struct BeamsReceiver[]",
          "name": "currReceivers",
          "type": "tuple[]"
        },
        {
          "internalType": "uint32",
          "name": "timestamp",
          "type": "uint32"
        }
      ],
      "name": "balanceAt",
      "outputs": [
        {
          "internalType": "uint128",
          "name": "balance",
          "type": "uint128"
        }
      ],
      "stateMutability": "view",
      "type": "function"
    },
    {
      "inputs": [
        {
          "internalType": "uint256",
          "name": "userId",
          "type": "uint256"
        },
        {
          "internalType": "contract IERC20",
          "name": "erc20",
          "type": "address"
        }
      ],
      "name": "beamsState",
      "outputs": [
        {
          "internalType": "bytes32",
          "name": "beamsHash",
          "type": "bytes32"
        },
        {
          "internalType": "bytes32",
          "name": "beamsHistoryHash",
          "type": "bytes32"
        },
        {
          "internalType": "uint32",
          "name": "updateTime",
          "type": "uint32"
        },
        {
          "internalType": "uint128",
          "name": "balance",
          "type": "uint128"
        },
        {
          "internalType": "uint32",
          "name": "maxEnd",
          "type": "uint32"
        }
      ],
      "stateMutability": "view",
      "type": "function"
    },
    {
      "inputs": [
        {
          "internalType": "uint256",
          "name": "userId",
          "type": "uint256"
        },
        {
          "internalType": "contract IERC20",
          "name": "erc20",
          "type": "address"
        }
      ],
      "name": "collect",
      "outputs": [
        {
          "internalType": "uint128",
          "name": "amt",
          "type": "uint128"
        }
      ],
      "stateMutability": "nonpayable",
      "type": "function"
    },
    {
      "inputs": [
        {
          "internalType": "uint256",
          "name": "userId",
          "type": "uint256"
        },
        {
          "internalType": "contract IERC20",
          "name": "erc20",
          "type": "address"
        }
      ],
      "name": "collectable",
      "outputs": [
        {
          "internalType": "uint128",
          "name": "amt",
          "type": "uint128"
        }
      ],
      "stateMutability": "view",
      "type": "function"
    },
    {
      "inputs": [],
      "name": "cycleSecs",
      "outputs": [
        {
          "internalType": "uint32",
          "name": "",
          "type": "uint32"
        }
      ],
      "stateMutability": "view",
      "type": "function"
    },
    {
      "inputs": [
        {
          "internalType": "uint32",
          "name": "driverId",
          "type": "uint32"
        }
      ],
      "name": "driverAddress",
      "outputs": [
        {
          "internalType": "address",
          "name": "driverAddr",
          "type": "address"
        }
      ],
      "stateMutability": "view",
      "type": "function"
    },
    {
      "inputs": [
        {
          "internalType": "uint256",
          "name": "userId",
          "type": "uint256"
        },
        {
          "components": [
            {
              "internalType": "bytes32",
              "name": "key",
              "type": "bytes32"
            },
            {
              "internalType": "bytes",
              "name": "value",
              "type": "bytes"
            }
          ],
          "internalType": "struct UserMetadata[]",
          "name": "userMetadata",
          "type": "tuple[]"
        }
      ],
      "name": "emitUserMetadata",
      "outputs": [],
      "stateMutability": "nonpayable",
      "type": "function"
    },
    {
      "inputs": [
        {
          "internalType": "uint256",
          "name": "userId",
          "type": "uint256"
        },
        {
          "internalType": "uint256",
          "name": "receiver",
          "type": "uint256"
        },
        {
          "internalType": "contract IERC20",
          "name": "erc20",
          "type": "address"
        },
        {
          "internalType": "uint128",
          "name": "amt",
          "type": "uint128"
        }
      ],
      "name": "give",
      "outputs": [],
      "stateMutability": "nonpayable",
      "type": "function"
    },
    {
      "inputs": [
        {
          "internalType": "address",
          "name": "pauser",
          "type": "address"
        }
      ],
      "name": "grantPauser",
      "outputs": [],
      "stateMutability": "nonpayable",
      "type": "function"
    },
    {
      "inputs": [
        {
          "components": [
            {
              "internalType": "uint256",
              "name": "userId",
              "type": "uint256"
            },
            {
              "internalType": "BeamsConfig",
              "name": "config",
              "type": "uint256"
            }
          ],
          "internalType": "struct BeamsReceiver[]",
          "name": "receivers",
          "type": "tuple[]"
        }
      ],
      "name": "hashBeams",
      "outputs": [
        {
          "internalType": "bytes32",
          "name": "beamsHash",
          "type": "bytes32"
        }
      ],
      "stateMutability": "pure",
      "type": "function"
    },
    {
      "inputs": [
        {
          "internalType": "bytes32",
          "name": "oldBeamsHistoryHash",
          "type": "bytes32"
        },
        {
          "internalType": "bytes32",
          "name": "beamsHash",
          "type": "bytes32"
        },
        {
          "internalType": "uint32",
          "name": "updateTime",
          "type": "uint32"
        },
        {
          "internalType": "uint32",
          "name": "maxEnd",
          "type": "uint32"
        }
      ],
      "name": "hashBeamsHistory",
      "outputs": [
        {
          "internalType": "bytes32",
          "name": "beamsHistoryHash",
          "type": "bytes32"
        }
      ],
      "stateMutability": "pure",
      "type": "function"
    },
    {
      "inputs": [
        {
          "components": [
            {
              "internalType": "uint256",
              "name": "userId",
              "type": "uint256"
            },
            {
              "internalType": "uint32",
              "name": "weight",
              "type": "uint32"
            }
          ],
          "internalType": "struct SplitsReceiver[]",
          "name": "receivers",
          "type": "tuple[]"
        }
      ],
      "name": "hashSplits",
      "outputs": [
        {
          "internalType": "bytes32",
          "name": "receiversHash",
          "type": "bytes32"
        }
      ],
      "stateMutability": "pure",
      "type": "function"
    },
    {
      "inputs": [],
      "name": "implementation",
      "outputs": [
        {
          "internalType": "address",
          "name": "",
          "type": "address"
        }
      ],
      "stateMutability": "view",
      "type": "function"
    },
    {
      "inputs": [],
      "name": "isPaused",
      "outputs": [
        {
          "internalType": "bool",
          "name": "",
          "type": "bool"
        }
      ],
      "stateMutability": "view",
      "type": "function"
    },
    {
      "inputs": [
        {
          "internalType": "address",
          "name": "pauser",
          "type": "address"
        }
      ],
      "name": "isPauser",
      "outputs": [
        {
          "internalType": "bool",
          "name": "isAddrPauser",
          "type": "bool"
        }
      ],
      "stateMutability": "view",
      "type": "function"
    },
    {
      "inputs": [],
      "name": "minAmtPerSec",
      "outputs": [
        {
          "internalType": "uint160",
          "name": "",
          "type": "uint160"
        }
      ],
      "stateMutability": "view",
      "type": "function"
    },
    {
      "inputs": [],
      "name": "nextDriverId",
      "outputs": [
        {
          "internalType": "uint32",
          "name": "driverId",
          "type": "uint32"
        }
      ],
      "stateMutability": "view",
      "type": "function"
    },
    {
      "inputs": [],
      "name": "pause",
      "outputs": [],
      "stateMutability": "nonpayable",
      "type": "function"
    },
    {
      "inputs": [
        {
          "internalType": "address",
          "name": "newAdmin",
          "type": "address"
        }
      ],
      "name": "proposeNewAdmin",
      "outputs": [],
      "stateMutability": "nonpayable",
      "type": "function"
    },
    {
      "inputs": [],
      "name": "proposedAdmin",
      "outputs": [
        {
          "internalType": "address",
          "name": "",
          "type": "address"
        }
      ],
      "stateMutability": "view",
      "type": "function"
    },
    {
      "inputs": [],
      "name": "proxiableUUID",
      "outputs": [
        {
          "internalType": "bytes32",
          "name": "",
          "type": "bytes32"
        }
      ],
      "stateMutability": "view",
      "type": "function"
    },
    {
      "inputs": [
        {
          "internalType": "uint256",
          "name": "userId",
          "type": "uint256"
        },
        {
          "internalType": "contract IERC20",
          "name": "erc20",
          "type": "address"
        }
      ],
      "name": "receivableBeamsCycles",
      "outputs": [
        {
          "internalType": "uint32",
          "name": "cycles",
          "type": "uint32"
        }
      ],
      "stateMutability": "view",
      "type": "function"
    },
    {
      "inputs": [
        {
          "internalType": "uint256",
          "name": "userId",
          "type": "uint256"
        },
        {
          "internalType": "contract IERC20",
          "name": "erc20",
          "type": "address"
        },
        {
          "internalType": "uint32",
          "name": "maxCycles",
          "type": "uint32"
        }
      ],
      "name": "receiveBeams",
      "outputs": [
        {
          "internalType": "uint128",
          "name": "receivedAmt",
          "type": "uint128"
        }
      ],
      "stateMutability": "nonpayable",
      "type": "function"
    },
    {
      "inputs": [
        {
          "internalType": "uint256",
          "name": "userId",
          "type": "uint256"
        },
        {
          "internalType": "contract IERC20",
          "name": "erc20",
          "type": "address"
        },
        {
          "internalType": "uint32",
          "name": "maxCycles",
          "type": "uint32"
        }
      ],
      "name": "receiveBeamsResult",
      "outputs": [
        {
          "internalType": "uint128",
          "name": "receivableAmt",
          "type": "uint128"
        }
      ],
      "stateMutability": "view",
      "type": "function"
    },
    {
      "inputs": [
        {
          "internalType": "address",
          "name": "driverAddr",
          "type": "address"
        }
      ],
      "name": "registerDriver",
      "outputs": [
        {
          "internalType": "uint32",
          "name": "driverId",
          "type": "uint32"
        }
      ],
      "stateMutability": "nonpayable",
      "type": "function"
    },
    {
      "inputs": [],
      "name": "renounceAdmin",
      "outputs": [],
      "stateMutability": "nonpayable",
      "type": "function"
    },
    {
      "inputs": [
        {
          "internalType": "address",
          "name": "pauser",
          "type": "address"
        }
      ],
      "name": "revokePauser",
      "outputs": [],
      "stateMutability": "nonpayable",
      "type": "function"
    },
    {
      "inputs": [
        {
          "internalType": "uint256",
          "name": "userId",
          "type": "uint256"
        },
        {
          "internalType": "contract IERC20",
          "name": "erc20",
          "type": "address"
        },
        {
          "components": [
            {
              "internalType": "uint256",
              "name": "userId",
              "type": "uint256"
            },
            {
              "internalType": "BeamsConfig",
              "name": "config",
              "type": "uint256"
            }
          ],
          "internalType": "struct BeamsReceiver[]",
          "name": "currReceivers",
          "type": "tuple[]"
        },
        {
          "internalType": "int128",
          "name": "balanceDelta",
          "type": "int128"
        },
        {
          "components": [
            {
              "internalType": "uint256",
              "name": "userId",
              "type": "uint256"
            },
            {
              "internalType": "BeamsConfig",
              "name": "config",
              "type": "uint256"
            }
          ],
          "internalType": "struct BeamsReceiver[]",
          "name": "newReceivers",
          "type": "tuple[]"
        },
        {
          "internalType": "uint32",
          "name": "maxEndHint1",
          "type": "uint32"
        },
        {
          "internalType": "uint32",
          "name": "maxEndHint2",
          "type": "uint32"
        }
      ],
      "name": "setBeams",
      "outputs": [
        {
          "internalType": "int128",
          "name": "realBalanceDelta",
          "type": "int128"
        }
      ],
      "stateMutability": "nonpayable",
      "type": "function"
    },
    {
      "inputs": [
        {
          "internalType": "uint256",
          "name": "userId",
          "type": "uint256"
        },
        {
          "components": [
            {
              "internalType": "uint256",
              "name": "userId",
              "type": "uint256"
            },
            {
              "internalType": "uint32",
              "name": "weight",
              "type": "uint32"
            }
          ],
          "internalType": "struct SplitsReceiver[]",
          "name": "receivers",
          "type": "tuple[]"
        }
      ],
      "name": "setSplits",
      "outputs": [],
      "stateMutability": "nonpayable",
      "type": "function"
    },
    {
      "inputs": [
        {
          "internalType": "uint256",
          "name": "userId",
          "type": "uint256"
        },
        {
          "internalType": "contract IERC20",
          "name": "erc20",
          "type": "address"
        },
        {
          "components": [
            {
              "internalType": "uint256",
              "name": "userId",
              "type": "uint256"
            },
            {
              "internalType": "uint32",
              "name": "weight",
              "type": "uint32"
            }
          ],
          "internalType": "struct SplitsReceiver[]",
          "name": "currReceivers",
          "type": "tuple[]"
        }
      ],
      "name": "split",
      "outputs": [
        {
          "internalType": "uint128",
          "name": "collectableAmt",
          "type": "uint128"
        },
        {
          "internalType": "uint128",
          "name": "splitAmt",
          "type": "uint128"
        }
      ],
      "stateMutability": "nonpayable",
      "type": "function"
    },
    {
      "inputs": [
        {
          "internalType": "uint256",
          "name": "userId",
          "type": "uint256"
        },
        {
          "components": [
            {
              "internalType": "uint256",
              "name": "userId",
              "type": "uint256"
            },
            {
              "internalType": "uint32",
              "name": "weight",
              "type": "uint32"
            }
          ],
          "internalType": "struct SplitsReceiver[]",
          "name": "currReceivers",
          "type": "tuple[]"
        },
        {
          "internalType": "uint128",
          "name": "amount",
          "type": "uint128"
        }
      ],
      "name": "splitResult",
      "outputs": [
        {
          "internalType": "uint128",
          "name": "collectableAmt",
          "type": "uint128"
        },
        {
          "internalType": "uint128",
          "name": "splitAmt",
          "type": "uint128"
        }
      ],
      "stateMutability": "view",
      "type": "function"
    },
    {
      "inputs": [
        {
          "internalType": "uint256",
          "name": "userId",
          "type": "uint256"
        }
      ],
      "name": "splitsHash",
      "outputs": [
        {
          "internalType": "bytes32",
          "name": "currSplitsHash",
          "type": "bytes32"
        }
      ],
      "stateMutability": "view",
      "type": "function"
    },
    {
      "inputs": [
        {
          "internalType": "uint256",
          "name": "userId",
          "type": "uint256"
        },
        {
          "internalType": "contract IERC20",
          "name": "erc20",
          "type": "address"
        }
      ],
      "name": "splittable",
      "outputs": [
        {
          "internalType": "uint128",
          "name": "amt",
          "type": "uint128"
        }
      ],
      "stateMutability": "view",
      "type": "function"
    },
    {
      "inputs": [
        {
          "internalType": "uint256",
          "name": "userId",
          "type": "uint256"
        },
        {
          "internalType": "contract IERC20",
          "name": "erc20",
          "type": "address"
        },
        {
          "internalType": "uint256",
          "name": "senderId",
          "type": "uint256"
        },
        {
          "internalType": "bytes32",
          "name": "historyHash",
          "type": "bytes32"
        },
        {
          "components": [
            {
              "internalType": "bytes32",
              "name": "beamsHash",
              "type": "bytes32"
            },
            {
              "components": [
                {
                  "internalType": "uint256",
                  "name": "userId",
                  "type": "uint256"
                },
                {
                  "internalType": "BeamsConfig",
                  "name": "config",
                  "type": "uint256"
                }
              ],
              "internalType": "struct BeamsReceiver[]",
              "name": "receivers",
              "type": "tuple[]"
            },
            {
              "internalType": "uint32",
              "name": "updateTime",
              "type": "uint32"
            },
            {
              "internalType": "uint32",
              "name": "maxEnd",
              "type": "uint32"
            }
          ],
          "internalType": "struct BeamsHistory[]",
          "name": "beamsHistory",
          "type": "tuple[]"
        }
      ],
      "name": "squeezeBeams",
      "outputs": [
        {
          "internalType": "uint128",
          "name": "amt",
          "type": "uint128"
        }
      ],
      "stateMutability": "nonpayable",
      "type": "function"
    },
    {
      "inputs": [
        {
          "internalType": "uint256",
          "name": "userId",
          "type": "uint256"
        },
        {
          "internalType": "contract IERC20",
          "name": "erc20",
          "type": "address"
        },
        {
          "internalType": "uint256",
          "name": "senderId",
          "type": "uint256"
        },
        {
          "internalType": "bytes32",
          "name": "historyHash",
          "type": "bytes32"
        },
        {
          "components": [
            {
              "internalType": "bytes32",
              "name": "beamsHash",
              "type": "bytes32"
            },
            {
              "components": [
                {
                  "internalType": "uint256",
                  "name": "userId",
                  "type": "uint256"
                },
                {
                  "internalType": "BeamsConfig",
                  "name": "config",
                  "type": "uint256"
                }
              ],
              "internalType": "struct BeamsReceiver[]",
              "name": "receivers",
              "type": "tuple[]"
            },
            {
              "internalType": "uint32",
              "name": "updateTime",
              "type": "uint32"
            },
            {
              "internalType": "uint32",
              "name": "maxEnd",
              "type": "uint32"
            }
          ],
          "internalType": "struct BeamsHistory[]",
          "name": "beamsHistory",
          "type": "tuple[]"
        }
      ],
      "name": "squeezeBeamsResult",
      "outputs": [
        {
          "internalType": "uint128",
          "name": "amt",
          "type": "uint128"
        }
      ],
      "stateMutability": "view",
      "type": "function"
    },
    {
      "inputs": [
        {
          "internalType": "contract IERC20",
          "name": "erc20",
          "type": "address"
        }
      ],
      "name": "totalBalance",
      "outputs": [
        {
          "internalType": "uint256",
          "name": "balance",
          "type": "uint256"
        }
      ],
      "stateMutability": "view",
      "type": "function"
    },
    {
      "inputs": [],
      "name": "unpause",
      "outputs": [],
      "stateMutability": "nonpayable",
      "type": "function"
    },
    {
      "inputs": [
        {
          "internalType": "uint32",
          "name": "driverId",
          "type": "uint32"
        },
        {
          "internalType": "address",
          "name": "newDriverAddr",
          "type": "address"
        }
      ],
      "name": "updateDriverAddress",
      "outputs": [],
      "stateMutability": "nonpayable",
      "type": "function"
    },
    {
      "inputs": [
        {
          "internalType": "address",
          "name": "newImplementation",
          "type": "address"
        }
      ],
      "name": "upgradeTo",
      "outputs": [],
      "stateMutability": "nonpayable",
      "type": "function"
    },
    {
      "inputs": [
        {
          "internalType": "address",
          "name": "newImplementation",
          "type": "address"
        },
        {
          "internalType": "bytes",
          "name": "data",
          "type": "bytes"
        }
      ],
      "name": "upgradeToAndCall",
      "outputs": [],
      "stateMutability": "payable",
      "type": "function"
    },
    {
      "inputs": [
        {
          "internalType": "contract IERC20",
          "name": "erc20",
          "type": "address"
        },
        {
          "internalType": "address",
          "name": "receiver",
          "type": "address"
        },
        {
          "internalType": "uint256",
          "name": "amt",
          "type": "uint256"
        }
      ],
      "name": "withdraw",
      "outputs": [],
      "stateMutability": "nonpayable",
      "type": "function"
    }
  ],
  "bytecode": {
    "object": "0x306080526101e060405260176101a09081527f656970313936372e6d616e616765642e73746f726167650000000000000000006101c05262000041906200021e565b60a05260408051808201909152601881527f656970313936372e6265616d734875622e73746f726167650000000000000000602082015262000083906200021e565b610180523480156200009457600080fd5b50604051620064f5380380620064f5833981016040819052620000b7916200023d565b60408051808201909152601681527f656970313936372e73706c6974732e73746f72616765000000000000000000006020820152620000f6906200021e565b816200013d6040518060400160405280601581526020017f656970313936372e6265616d732e73746f7261676500000000000000000000008152506200021e60201b60201c565b60016200014960a05190565b805460ff1916911515919091179055600163ffffffff831611620001b35760405162461bcd60e51b815260206004820152601460248201527f4379636c65206c656e67746820746f6f206c6f77000000000000000000000000604482015260640160405180910390fd5b63ffffffff821660c08190526001620001d182633b9aca0062000282565b620001dd9190620002ac565b620001e99190620002cf565b6001600160a01b031660e081905261010091909152610120929092525060c05163ffffffff166101405261016052506200031a565b8051602082012060009062000237906104009062000304565b92915050565b6000602082840312156200025057600080fd5b815163ffffffff811681146200026557600080fd5b9392505050565b634e487b7160e01b600052601160045260246000fd5b6001600160a01b03818116838216019080821115620002a557620002a56200026c565b5092915050565b6001600160a01b03828116828216039080821115620002a557620002a56200026c565b60006001600160a01b0383811680620002f857634e487b7160e01b600052601260045260246000fd5b92169190910492915050565b818103818111156200023757620002376200026c565b60805160a05160c05160e0516101005161012051610140516101605161018051615fe96200050c600039600081816107c80152818161083d015281816108ff01528181611d1401528181611e05015281816120df01528181612277015281816123da015261298b01526000610a7f0152600061076401526000818161103e01528181611715015281816121c50152818161230801528181612ae201528181612e98015281816132dc015261437a0152600081816104e3015281816125690152818161263501528181612d2a01528181612f30015281816133e9015281816135a70152818161369f0152818161378c015261464d01526000614f17015260008181613e0c0152818161432f015281816145c401528181614cc601528181614dee0152614e190152600081816105ba015281816109e501528181610b8d01528181610c8701528181610d3901528181610d6c01528181610e5101528181610ee701528181610f82015281816112b2015281816113230152818161139e015281816113c6015281816117a7015281816118c20152818161193401528181611a1901528181611b5901528181611bba01528181611c9801528181611f6f015281816120140152612a2c0152600081816110d80152818161116e015281816114d90152818161156f01526116410152615fe96000f3fe6080604052600436106103345760003560e01c80637e5b5a83116101b0578063b187bd26116100ec578063d9e0107011610095578063f4e45f2d1161006f578063f4e45f2d14610b16578063f851a44014610b36578063f98e7e1d14610b4b578063fd70104614610b6b57600080fd5b8063d9e0107014610ac1578063f0f4fd5e14610ae1578063f11d513914610b0157600080fd5b8063c51fa3a1116100c6578063c51fa3a114610a4d578063c82051dd14610a6d578063d9caed1214610aa157600080fd5b8063b187bd26146109d6578063b1cad7ee14610a0d578063b3855f7114610a2d57600080fd5b806398aba1cf11610159578063a6b07d1911610133578063a6b07d1914610961578063aac320a214610981578063aeefca1c146109a1578063aff01135146109c157600080fd5b806398aba1cf146108f0578063a63767461461092a578063a69aff3c1461094a57600080fd5b80638bad0c0a1161018a5780638bad0c0a146108a65780638d3c100a146108bb5780638e48a7e5146108db57600080fd5b80637e5b5a83146108135780637fe76df0146108715780638456cb591461089157600080fd5b8063387d2a2f1161027f57806352d1902d116102285780635c60da1b116102025780635c60da1b1461073d578063631d669c146107525780636eacd3981461079b57806374dd0565146107f357600080fd5b806352d1902d146106e15780635429f175146106f6578063577e012c1461071d57600080fd5b806346fbf68e1161025957806346fbf68e1461067e5780634dc4d4d6146106ae5780634f1ef286146106ce57600080fd5b8063387d2a2f1461061f5780633f4ba83a14610637578063444e249f1461064c57600080fd5b80631bb4c0f5116102e15780632df4c621116102bb5780632df4c621146104b857806332f751ec146105ab5780633659cfe6146105ff57600080fd5b80631bb4c0f5146104375780631ec026c8146104785780632776f94c1461049857600080fd5b80630c55b5ec116103125780630c55b5ec146103a65780630e18b681146103d95780630ea2063a146103ee57600080fd5b806302cfc7531461033957806309c1d95f1461035b57806309d48a941461037b575b600080fd5b34801561034557600080fd5b506103596103543660046153a2565b610b8b565b005b34801561036757600080fd5b506103596103763660046153fe565b610c21565b34801561038757600080fd5b50610390610d32565b60405161039d919061541b565b60405180910390f35b3480156103b257600080fd5b506103c66103c13660046154e7565b610d65565b604051600f9190910b815260200161039d565b3480156103e557600080fd5b50610359610e49565b3480156103fa57600080fd5b5061040e6104093660046155a3565b610edf565b604080516fffffffffffffffffffffffffffffffff93841681529290911660208301520161039d565b34801561044357600080fd5b506104576104523660046155fc565b610f7b565b6040516fffffffffffffffffffffffffffffffff909116815260200161039d565b34801561048457600080fd5b5061045761049336600461563a565b611037565b3480156104a457600080fd5b506104576104b336600461566a565b6110ac565b3480156104c457600080fd5b506105686104d336600461563a565b6001600160a01b031660009081527f0000000000000000000000000000000000000000000000000000000000000000602090815260408083209383529290522060028101548154600390920154909263ffffffff64010000000083048116926fffffffffffffffffffffffffffffffff6c01000000000000000000000000820416926801000000000000000090910490911690565b60408051958652602086019490945263ffffffff928316938501939093526fffffffffffffffffffffffffffffffff16606084015216608082015260a00161039d565b3480156105b757600080fd5b507f0000000000000000000000000000000000000000000000000000000000000000600301546001600160a01b03165b6040516001600160a01b03909116815260200161039d565b34801561060b57600080fd5b5061035961061a3660046153fe565b6110ce565b34801561062b57600080fd5b506105e7633b9aca0081565b34801561064357600080fd5b50610359611242565b34801561065857600080fd5b506106706f7fffffffffffffffffffffffffffffff81565b60405190815260200161039d565b34801561068a57600080fd5b5061069e6106993660046153fe565b611395565b604051901515815260200161039d565b3480156106ba57600080fd5b506103596106c93660046156d4565b6113c4565b6103596106dc366004615753565b6114cf565b3480156106ed57600080fd5b50610670611634565b34801561070257600080fd5b5061070b600981565b60405160ff909116815260200161039d565b34801561072957600080fd5b506106706107383660046157fb565b6116f9565b34801561074957600080fd5b506105e7611704565b34801561075e57600080fd5b506107867f000000000000000000000000000000000000000000000000000000000000000081565b60405163ffffffff909116815260200161039d565b3480156107a757600080fd5b506106706107b63660046153fe565b6001600160a01b0316600090815260027f000000000000000000000000000000000000000000000000000000000000000001602052604090205490565b3480156107ff57600080fd5b5061067061080e366004615830565b61170e565b34801561081f57600080fd5b506105e761082e366004615849565b63ffffffff16600090815260017f00000000000000000000000000000000000000000000000000000000000000000160205260409020546001600160a01b031690565b34801561087d57600080fd5b5061035961088c3660046153fe565b611741565b34801561089d57600080fd5b50610359611852565b3480156108b257600080fd5b506103596119a9565b3480156108c757600080fd5b506104576108d636600461563a565b611a12565b3480156108e757600080fd5b5061067060e081565b3480156108fc57600080fd5b507f00000000000000000000000000000000000000000000000000000000000000005463ffffffff16610786565b34801561093657600080fd5b506103596109453660046153fe565b611ac2565b34801561095657600080fd5b50610786620f424081565b34801561096d57600080fd5b5061045761097c366004615864565b611bb3565b34801561098d57600080fd5b5061045761099c3660046155fc565b611c73565b3480156109ad57600080fd5b506103596109bc3660046159bb565b611c96565b3480156109cd57600080fd5b50610670606481565b3480156109e257600080fd5b507f00000000000000000000000000000000000000000000000000000000000000005460ff1661069e565b348015610a1957600080fd5b50610670610a283660046159e7565b611dad565b348015610a3957600080fd5b50610786610a4836600461563a565b611db8565b348015610a5957600080fd5b50610457610a68366004615864565b611dcd565b348015610a7957600080fd5b506105e77f000000000000000000000000000000000000000000000000000000000000000081565b348015610aad57600080fd5b50610359610abc366004615a1c565b611df4565b348015610acd57600080fd5b50610359610adc366004615a7d565b611f6d565b348015610aed57600080fd5b50610786610afc3660046153fe565b61200d565b348015610b0d57600080fd5b5061067060c881565b348015610b2257600080fd5b5061040e610b31366004615aba565b6121a6565b348015610b4257600080fd5b506105e76121b4565b348015610b5757600080fd5b50610457610b6636600461563a565b6121be565b348015610b7757600080fd5b50610670610b86366004615b08565b61221a565b7f00000000000000000000000000000000000000000000000000000000000000005460ff1615610c025760405162461bcd60e51b815260206004820152600f60248201527f436f6e747261637420706175736564000000000000000000000000000000000060448201526064015b60405180910390fd5b8160e081901c610c1181612263565b610c1b8484612301565b50505050565b33610c2a6121b4565b6001600160a01b031614610c805760405162461bcd60e51b815260206004820152601460248201527f43616c6c6572206e6f74207468652061646d696e0000000000000000000000006044820152606401610bf9565b610cad60017f00000000000000000000000000000000000000000000000000000000000000000182612380565b610cf95760405162461bcd60e51b815260206004820152601b60248201527f4164647265737320616c726561647920697320612070617573657200000000006044820152606401610bf9565b60405133906001600160a01b038316907fbb7fff487ca65a5841fe463ac801812d2aeb3c2059f6e44b2b3cdab8ee7c3db090600090a350565b6060610d607f0000000000000000000000000000000000000000000000000000000000000000600101612395565b905090565b6000610d927f00000000000000000000000000000000000000000000000000000000000000005460ff1690565b15610ddf5760405162461bcd60e51b815260206004820152600f60248201527f436f6e74726163742070617573656400000000000000000000000000000000006044820152606401610bf9565b8760e081901c610dee81612263565b600087600f0b1315610e0457610e0489886123a9565b610e1c8a6001600160a01b038b168a8a8a8a8a612562565b9250600083600f0b1215610e3c57610e3c89610e3785615b72565b61295a565b5050979650505050505050565b33610e7e60037f000000000000000000000000000000000000000000000000000000000000000001546001600160a01b031690565b6001600160a01b031614610ed45760405162461bcd60e51b815260206004820152601d60248201527f43616c6c6572206e6f74207468652070726f706f7365642061646d696e0000006044820152606401610bf9565b610edd336129dd565b565b600080610f0d7f00000000000000000000000000000000000000000000000000000000000000005460ff1690565b15610f5a5760405162461bcd60e51b815260206004820152600f60248201527f436f6e74726163742070617573656400000000000000000000000000000000006044820152606401610bf9565b610f6e856001600160a01b03861685612ace565b915091505b935093915050565b6000610fa87f00000000000000000000000000000000000000000000000000000000000000005460ff1690565b15610ff55760405162461bcd60e51b815260206004820152600f60248201527f436f6e74726163742070617573656400000000000000000000000000000000006044820152606401610bf9565b6001600160a01b03831661100a858285612cf7565b91506fffffffffffffffffffffffffffffffff82161561102f5761102f858284612e91565b509392505050565b60008281527f0000000000000000000000000000000000000000000000000000000000000000602090815260408083206001600160a01b038516845260010190915281205470010000000000000000000000000000000090046fffffffffffffffffffffffffffffffff165b90505b92915050565b60006110c3856001600160a01b0386168585612f29565b90505b949350505050565b6001600160a01b037f000000000000000000000000000000000000000000000000000000000000000016300361116c5760405162461bcd60e51b815260206004820152602c60248201527f46756e6374696f6e206d7573742062652063616c6c6564207468726f7567682060448201527f64656c656761746563616c6c00000000000000000000000000000000000000006064820152608401610bf9565b7f00000000000000000000000000000000000000000000000000000000000000006001600160a01b031661119e61302b565b6001600160a01b03161461121a5760405162461bcd60e51b815260206004820152602c60248201527f46756e6374696f6e206d7573742062652063616c6c6564207468726f7567682060448201527f6163746976652070726f787900000000000000000000000000000000000000006064820152608401610bf9565b6112238161305e565b6040805160008082526020820190925261123f918391906130bd565b50565b3361124b6121b4565b6001600160a01b03161480611264575061126433611395565b6112b05760405162461bcd60e51b815260206004820181905260248201527f43616c6c6572206e6f74207468652061646d696e206f722061207061757365726044820152606401610bf9565b7f00000000000000000000000000000000000000000000000000000000000000005460ff166113215760405162461bcd60e51b815260206004820152601360248201527f436f6e7472616374206e6f7420706175736564000000000000000000000000006044820152606401610bf9565b7f000000000000000000000000000000000000000000000000000000000000000080547fffffffffffffffffffffffffffffffffffffffffffffffffffffffffffffff0016905560405133907f5db9ee0a495bf2e6ff9c91a7834c1ba4fdd244a5e8aa4e537bd38aeae4b073aa90600090a2565b60006110a660017f0000000000000000000000000000000000000000000000000000000000000000018361325d565b7f00000000000000000000000000000000000000000000000000000000000000005460ff16156114365760405162461bcd60e51b815260206004820152600f60248201527f436f6e74726163742070617573656400000000000000000000000000000000006044820152606401610bf9565b8260e081901c61144581612263565b60005b838110156114c7573685858381811061146357611463615bb0565b90506020028101906114759190615bdf565b90508035877f14f72a833db3beecac3f84edda795c8df8cd1715d8c578f0cae1c196fcf3f5eb6114a86020850185615c1d565b6040516114b6929190615c82565b60405180910390a350600101611448565b505050505050565b6001600160a01b037f000000000000000000000000000000000000000000000000000000000000000016300361156d5760405162461bcd60e51b815260206004820152602c60248201527f46756e6374696f6e206d7573742062652063616c6c6564207468726f7567682060448201527f64656c656761746563616c6c00000000000000000000000000000000000000006064820152608401610bf9565b7f00000000000000000000000000000000000000000000000000000000000000006001600160a01b031661159f61302b565b6001600160a01b03161461161b5760405162461bcd60e51b815260206004820152602c60248201527f46756e6374696f6e206d7573742062652063616c6c6564207468726f7567682060448201527f6163746976652070726f787900000000000000000000000000000000000000006064820152608401610bf9565b6116248261305e565b611630828260016130bd565b5050565b6000306001600160a01b037f000000000000000000000000000000000000000000000000000000000000000016146116d45760405162461bcd60e51b815260206004820152603860248201527f555550535570677261646561626c653a206d757374206e6f742062652063616c60448201527f6c6564207468726f7567682064656c656761746563616c6c00000000000000006064820152608401610bf9565b507f360894a13ba1a3210667c828492db98dca3e2076cc3735a920a3ca505d382bbc90565b60006110a68261327f565b6000610d6061302b565b60008181527f000000000000000000000000000000000000000000000000000000000000000060205260408120546110a6565b3361174a6121b4565b6001600160a01b0316146117a05760405162461bcd60e51b815260206004820152601460248201527f43616c6c6572206e6f74207468652061646d696e0000000000000000000000006044820152606401610bf9565b6117cd60017f000000000000000000000000000000000000000000000000000000000000000001826132c0565b6118195760405162461bcd60e51b815260206004820152601760248201527f41646472657373206973206e6f742061207061757365720000000000000000006044820152606401610bf9565b60405133906001600160a01b038316907ffd55549bcbafb9531a61db3cfb88d1cca64e215b12def56e6ea913fe1ac91fd290600090a350565b3361185b6121b4565b6001600160a01b03161480611874575061187433611395565b6118c05760405162461bcd60e51b815260206004820181905260248201527f43616c6c6572206e6f74207468652061646d696e206f722061207061757365726044820152606401610bf9565b7f00000000000000000000000000000000000000000000000000000000000000005460ff16156119325760405162461bcd60e51b815260206004820152600f60248201527f436f6e74726163742070617573656400000000000000000000000000000000006044820152606401610bf9565b7f000000000000000000000000000000000000000000000000000000000000000080547fffffffffffffffffffffffffffffffffffffffffffffffffffffffffffffff0016600117905560405133907f62e78cea01bee320cd4e420270b5ea74000d11b0c9f74754ebdbfc544b05a25890600090a2565b336119b26121b4565b6001600160a01b031614611a085760405162461bcd60e51b815260206004820152601460248201527f43616c6c6572206e6f74207468652061646d696e0000000000000000000000006044820152606401610bf9565b610edd60006129dd565b6000611a3f7f00000000000000000000000000000000000000000000000000000000000000005460ff1690565b15611a8c5760405162461bcd60e51b815260206004820152600f60248201527f436f6e74726163742070617573656400000000000000000000000000000000006044820152606401610bf9565b8260e081901c611a9b81612263565b611aae856001600160a01b0386166132d5565b9250611aba848461295a565b505092915050565b33611acb6121b4565b6001600160a01b031614611b215760405162461bcd60e51b815260206004820152601460248201527f43616c6c6572206e6f74207468652061646d696e0000000000000000000000006044820152606401610bf9565b6040516001600160a01b0382169033907fed2d93e7985747cd1a4a093c2cc3bb73d0f177b81bdfd26020e8f20a97e8112e90600090a37f000000000000000000000000000000000000000000000000000000000000000060030180547fffffffffffffffffffffffff0000000000000000000000000000000000000000166001600160a01b0392909216919091179055565b6000611be07f00000000000000000000000000000000000000000000000000000000000000005460ff1690565b15611c2d5760405162461bcd60e51b815260206004820152600f60248201527f436f6e74726163742070617573656400000000000000000000000000000000006044820152606401610bf9565b6001600160a01b038516611c44878287878761337c565b91506fffffffffffffffffffffffffffffffff821615611c6957611c69878284612e91565b5095945050505050565b6000611c89846001600160a01b03851684613568565b5092979650505050505050565b7f00000000000000000000000000000000000000000000000000000000000000005460ff1615611d085760405162461bcd60e51b815260206004820152600f60248201527f436f6e74726163742070617573656400000000000000000000000000000000006044820152606401610bf9565b611d1182612263565b807f000000000000000000000000000000000000000000000000000000000000000063ffffffff84166000818152600192909201602052604080832080547fffffffffffffffffffffffff0000000000000000000000000000000000000000166001600160a01b03958616179055519284169233927f5a2904d4b2f1a05120ab193be9a140a7ad8d310e3bb91af232d47f2f55fa388291a45050565b60006110a682613658565b60006110a3836001600160a01b03841661367c565b6000611de5866001600160a01b038716868686613695565b50929998505050505050505050565b6001600160a01b03831660009081527f000000000000000000000000000000000000000000000000000000000000000060020160205260408120546040517f70a082310000000000000000000000000000000000000000000000000000000081523060048201526001600160a01b038616906370a0823190602401602060405180830381865afa158015611e8c573d6000803e3d6000fd5b505050506040513d601f19601f82011682018060405250810190611eb09190615cb1565b611eba9190615cca565b905080821115611f0c5760405162461bcd60e51b815260206004820152601a60248201527f5769746864726177616c20616d6f756e7420746f6f20686967680000000000006044820152606401610bf9565b826001600160a01b0316846001600160a01b03167fd1c19fbcd4551a5edfb66d43d2e337c04837afda3482b42bdf569a8fccdae5fb84604051611f5191815260200190565b60405180910390a3610c1b6001600160a01b03851684846138fc565b7f00000000000000000000000000000000000000000000000000000000000000005460ff1615611fdf5760405162461bcd60e51b815260206004820152600f60248201527f436f6e74726163742070617573656400000000000000000000000000000000006044820152606401610bf9565b8360e081901c611fee81612263565b611ff884846123a9565b6114c786866001600160a01b0387168661397c565b600061203a7f00000000000000000000000000000000000000000000000000000000000000005460ff1690565b156120875760405162461bcd60e51b815260206004820152600f60248201527f436f6e74726163742070617573656400000000000000000000000000000000006044820152606401610bf9565b6001600160a01b0382166120dd5760405162461bcd60e51b815260206004820152601f60248201527f447269766572207265676973746572656420666f7220302061646472657373006044820152606401610bf9565b7f0000000000000000000000000000000000000000000000000000000000000000805463ffffffff1681600061211283615cdd565b82546101009290920a63ffffffff8181021990931691831602179091558116600081815260018401602052604080822080547fffffffffffffffffffffffff0000000000000000000000000000000000000000166001600160a01b0389169081179091559051939550927f749894a8ffc45e1d212322a05461004c7bc358b4d36325766b63526b1ccf8bdf9190a350919050565b600080610f6e8585856139d8565b6000610d60613a80565b60008281527f0000000000000000000000000000000000000000000000000000000000000000602090815260408083206001600160a01b03851684526001019091528120546fffffffffffffffffffffffffffffffff166110a3565b60408051602080820187905281830186905263ffffffff808616606084015284166080808401919091528351808403909101815260a090920190925280519101206000906110c3565b336122ab8263ffffffff16600090815260017f00000000000000000000000000000000000000000000000000000000000000000160205260409020546001600160a01b031690565b6001600160a01b03161461123f5760405162461bcd60e51b815260206004820152601b60248201527f43616c6c61626c65206f6e6c79206279207468652064726976657200000000006044820152606401610bf9565b60008281527f000000000000000000000000000000000000000000000000000000000000000060205260408120906123388361327f565b905080847f8af909ffa127c333d18602940f67f3fd57368f15b6860033919818daa60c168460405160405180910390a381548114610c1b5761237a8382613aa8565b90555050565b60006110a3836001600160a01b038416613c93565b606060006123a283613ce2565b9392505050565b806fffffffffffffffffffffffffffffffff166000036123c7575050565b6001600160a01b038216600090815260027f0000000000000000000000000000000000000000000000000000000000000000016020526040812080546fffffffffffffffffffffffffffffffff841691908390612425908490615d00565b91829055509150506f7fffffffffffffffffffffffffffffff81111561248d5760405162461bcd60e51b815260206004820152601660248201527f546f74616c2062616c616e636520746f6f2068696768000000000000000000006044820152606401610bf9565b6040517f70a082310000000000000000000000000000000000000000000000000000000081523060048201526001600160a01b038416906370a0823190602401602060405180830381865afa1580156124ea573d6000803e3d6000fd5b505050506040513d601f19601f8201168201806040525081019061250e9190615cb1565b81111561255d5760405162461bcd60e51b815260206004820152601660248201527f4552432d32302062616c616e636520746f6f206c6f77000000000000000000006044820152606401610bf9565b505050565b60008681527f0000000000000000000000000000000000000000000000000000000000000000602090815260408083208a845290915281206125a48782613d3e565b6003810154640100000000810463ffffffff908116916000918291680100000000000000008104909116908290612600906c0100000000000000000000000090046fffffffffffffffffffffffffffffffff1686848f42613d99565b90508a965080600003600f0b87600f0b121561261d578060000396505b868101935061262e848b8b8b613e68565b60008e81527f00000000000000000000000000000000000000000000000000000000000000006020526040902090935061266c908d87858e88613ff6565b50506126754290565b6003850180547fffffffffffffffffffffffffffffffffffffffff0000000000000000ffffffff1664010000000063ffffffff938416027fffffffffffffffffffffffffffffffffffffffff00000000ffffffffffffffff16176801000000000000000092841692909202919091177fffffffff00000000000000000000000000000000ffffffffffffffffffffffff166c010000000000000000000000006fffffffffffffffffffffffffffffffff8516021790558354801580159061275857506127404261432b565b63ffffffff1661274f8561432b565b63ffffffff1614155b156127a7576003850180547bffffffffffffffffffffffffffffffffffffffffffffffffffffffff167c0200000000000000000000000000000000000000000000000000000000179055612801565b600385018054600163ffffffff7c010000000000000000000000000000000000000000000000000000000080840482169290920116027bffffffffffffffffffffffffffffffffffffffffffffffffffffffff9091161790555b600061280c8a613658565b60408051602080820186905281830184905263ffffffff428116606084015287166080808401919091528351808403909101815260a090920190925280519101209091508660000181905550808d8f7f70a63c1c8785f559ce853b9ce536553194deaa5efb74552c35cf992028854fae8588886040516128b7939291909283526fffffffffffffffffffffffffffffffff91909116602083015263ffffffff16604082015260600190565b60405180910390a485600201548114612949576002860181905560005b8a518110156129475760008b82815181106128f1576128f1615bb0565b602002602001015190508060000151837f96e01617fbada1f694d8b0d5e8762d84266a6ad2fe7fde574c393d649b053d88836020015160405161293691815260200190565b60405180910390a3506001016128d4565b505b505050505050979650505050505050565b806fffffffffffffffffffffffffffffffff16600003612978575050565b6001600160a01b038216600090815260027f0000000000000000000000000000000000000000000000000000000000000000016020526040812080546fffffffffffffffffffffffffffffffff841692906129d4908490615cca565b90915550505050565b7f7e644d79422f17c01e4894b5f4f588d331ebfa28653d42ae832dc59e38c9798f612a066121b4565b604080516001600160a01b03928316815291841660208301520160405180910390a160037f00000000000000000000000000000000000000000000000000000000000000000180547fffffffffffffffffffffffff0000000000000000000000000000000000000000169055807fb53127684a568b3173ae13b9f8a6016e243e63b6e8ee1178d6a717850b5d61035b80547fffffffffffffffffffffffff0000000000000000000000000000000000000000166001600160a01b039290921691909117905550565b600080612adb8584614373565b60008581527f000000000000000000000000000000000000000000000000000000000000000060209081526040808320878452600101909152812080546fffffffffffffffffffffffffffffffff16935090839003612b41576000809250925050610f73565b80547fffffffffffffffffffffffffffffffff000000000000000000000000000000001681556000805b8551811015612c5f57858181518110612b8657612b86615bb0565b60200260200101516020015163ffffffff1682019150600084620f424063ffffffff1684886fffffffffffffffffffffffffffffffff16026001600160a01b031681612bd457612bd4615d13565b0403905080850194506000878381518110612bf157612bf1615bb0565b6020026020010151600001519050612c0a818a84612e91565b6040516fffffffffffffffffffffffffffffffff83168152899082908c907fe8a2548797175024752ae7549e5302ecd88972342174f07458094f49abbd2ac09060200160405180910390a45050600101612b6b565b505080546fffffffffffffffffffffffffffffffff7001000000000000000000000000000000008083048216958590039586018216029116178155604051859087907fb32176d598f82df000a60ea408225c1f7a9c5f8d32b9ca66e83c5b8cb3324d5b90612ce69087906fffffffffffffffffffffffffffffffff91909116815260200190565b60405180910390a350935093915050565b6000806000806000612d0a888888613568565b93985091965094509250905063ffffffff80841690831614612e325760007f00000000000000000000000000000000000000000000000000000000000000006000898152602091825260408082208c8352909252206003810180547fffffffffffffffffffffffffffffffffffffffffffffffffffffffff000000001663ffffffff8616179055905060048101845b8463ffffffff168163ffffffff161015612dcb5763ffffffff8116600090815260208390526040812055600101612d99565b5082600f0b600014612e2f5763ffffffff8416600090815260208290526040902080546fffffffffffffffffffffffffffffffff600f82900b8601167fffffffffffffffffffffffffffffffff000000000000000000000000000000009091161790555b50505b604080516fffffffffffffffffffffffffffffffff8716815263ffffffff8616602082015288918a917fb1907680406f2b5bc2a67d828d2c355d202bca2965db45f66ec14c285e6dc65b910160405180910390a3505050509392505050565b60008381527f00000000000000000000000000000000000000000000000000000000000000006020908152604080832085845260010190915281208054839290612eee9084906fffffffffffffffffffffffffffffffff16615d42565b92506101000a8154816fffffffffffffffffffffffffffffffff02191690836fffffffffffffffffffffffffffffffff160217905550505050565b60008381527f00000000000000000000000000000000000000000000000000000000000000006020908152604080832087845290915281206003810154640100000000900463ffffffff9081169084161015612fc75760405162461bcd60e51b815260206004820181905260248201527f54696d657374616d70206265666f726520746865206c617374207570646174656044820152606401610bf9565b612fd18482613d3e565b6003810154613021906fffffffffffffffffffffffffffffffff6c010000000000000000000000008204169063ffffffff6401000000008204811691680100000000000000009004168787613d99565b9695505050505050565b60007f360894a13ba1a3210667c828492db98dca3e2076cc3735a920a3ca505d382bbc5b546001600160a01b0316919050565b336130676121b4565b6001600160a01b03161461123f5760405162461bcd60e51b815260206004820152601460248201527f43616c6c6572206e6f74207468652061646d696e0000000000000000000000006044820152606401610bf9565b7f4910fdfa16fed3260ed0e7147f7cc6da11a60208b5b9406d12a635614ffd91435460ff16156130f05761255d836143f7565b826001600160a01b03166352d1902d6040518163ffffffff1660e01b8152600401602060405180830381865afa92505050801561314a575060408051601f3d908101601f1916820190925261314791810190615cb1565b60015b6131bc5760405162461bcd60e51b815260206004820152602e60248201527f45524331393637557067726164653a206e657720696d706c656d656e7461746960448201527f6f6e206973206e6f7420555550530000000000000000000000000000000000006064820152608401610bf9565b7f360894a13ba1a3210667c828492db98dca3e2076cc3735a920a3ca505d382bbc81146132515760405162461bcd60e51b815260206004820152602960248201527f45524331393637557067726164653a20756e737570706f727465642070726f7860448201527f6961626c655555494400000000000000000000000000000000000000000000006064820152608401610bf9565b5061255d83838361449b565b6001600160a01b038116600090815260018301602052604081205415156110a3565b6000815160000361329257506000919050565b816040516020016132a39190615d6b565b604051602081830303815290604052805190602001209050919050565b60006110a3836001600160a01b0384166144c0565b60008281527f00000000000000000000000000000000000000000000000000000000000000006020908152604080832084845260010182529182902080546fffffffffffffffffffffffffffffffff808216835584517001000000000000000000000000000000009092041680825293519192859287927fba3642a34066103e9637e356c82d8337209f173c23ffc29707cc27056462c4e292908290030190a35092915050565b60008060608060006133918a8a8a8a8a613695565b93985091965094509250905060008467ffffffffffffffff8111156133b8576133b8615223565b6040519080825280602002602001820160405280156133e1578160200160208202803683370190505b5060008b81527f0000000000000000000000000000000000000000000000000000000000000000602090815260408083208f845282528083208d845260018101909252822092935091905b878110156134e1576000876001838b03038151811061344d5761344d615bb0565b6020026020010151905086818851038151811061346c5761346c615bb0565b602002602001015185838151811061348657613486615bb0565b6020908102919091010152428382880364010000000081106134aa576134aa615bb0565b600891828204019190066004026101000a81548163ffffffff021916908363ffffffff16021790555050808060010191505061342c565b5060006134ec6145ba565b905061351b838283600101633b9aca008d6fffffffffffffffffffffffffffffffff160260000360130b6145fd565b8b8d8f7fbe7466fe0ee7a241cae45acc69bedf5f0723d18529aa8da8be04ea7f47ca96338c8860405161354f929190615dc0565b60405180910390a4505050505050505095945050505050565b600080600080600061357a8888614646565b909350915063ffffffff80871684840390911611156135a0578583830303935083820391505b60008781527f0000000000000000000000000000000000000000000000000000000000000000602090815260408083208b84529091529020600401835b8363ffffffff168163ffffffff16101561364b5763ffffffff811660009081526020838152604091829020825180840190935254600f81810b808552700100000000000000000000000000000000909204900b929091018290529390930196870196909201916001016135dd565b5050939792965093509350565b6000815160000361366b57506000919050565b816040516020016132a39190615e20565b600080600061368b8585614646565b0395945050505050565b60008060608082807f000000000000000000000000000000000000000000000000000000000000000060008b8152602091825260408082208c83529092522080549091506136e690899089906146c1565b9250600191506136f46145ba565b600382015463ffffffff918216640100000000909104909116106137405760038101547c0100000000000000000000000000000000000000000000000000000000900463ffffffff1691505b50855167ffffffffffffffff81111561375b5761375b615223565b604051908082528060200260200182016040528015613784578160200160208202803683370190505b5060008a81527f0000000000000000000000000000000000000000000000000000000000000000602090815260408083208e845282528083208c8452600190810190925290912091945042905b885181111580156137e25750838111155b156138ec57600089828b5103815181106137fe576137fe615bb0565b602002602001015190508060200151516000146138de57600084838703640100000000811061382f5761382f615bb0565b600891828204019190066004029054906101000a900463ffffffff1690506138556145ba565b63ffffffff168163ffffffff161015613873576138706145ba565b90505b816040015163ffffffff168163ffffffff161015613892575060408101515b8363ffffffff168163ffffffff1610156138dc5782888a806001019b50815181106138bf576138bf615bb0565b6020026020010181815250506138d78f838387614881565b8a0199505b505b6040015191506001016137d1565b5050509550955095509550959050565b604080516001600160a01b038416602482015260448082018490528251808303909101815260649091019091526020810180517bffffffffffffffffffffffffffffffffffffffffffffffffffffffff167fa9059cbb0000000000000000000000000000000000000000000000000000000017905261255d908490614966565b613987838383612e91565b6040516fffffffffffffffffffffffffffffffff821681528290849086907f0c5a135735df44444f4651ffe9f0fc6c07c630cc0779e131db408d42ff027e969060200160405180910390a450505050565b6000806139e58585614373565b826fffffffffffffffffffffffffffffffff16600003613a0a57506000905080610f73565b6000805b8551811015613a4c57858181518110613a2957613a29615bb0565b60200260200101516020015163ffffffff16820191508080600101915050613a0e565b50620f42406001600160a01b036fffffffffffffffffffffffffffffffff8616830216049150818403925050935093915050565b60007fb53127684a568b3173ae13b9f8a6016e243e63b6e8ee1178d6a717850b5d610361304f565b60c882511115613afa5760405162461bcd60e51b815260206004820152601960248201527f546f6f206d616e792073706c69747320726563656976657273000000000000006044820152606401610bf9565b600080805b8451811015613c35576000858281518110613b1c57613b1c615bb0565b602002602001015190506000816020015190508063ffffffff16600003613b855760405162461bcd60e51b815260206004820152601e60248201527f53706c69747320726563656976657220776569676874206973207a65726f00006044820152606401610bf9565b815163ffffffff821695909501948315613be857808510613be85760405162461bcd60e51b815260206004820152601b60248201527f53706c69747320726563656976657273206e6f7420736f7274656400000000006044820152606401610bf9565b60405163ffffffff831681529094508490819088907feb9ab17f5929fcbcb68f4adf670d54c00ab00934512a4c92938d59b43a0463ea9060200160405180910390a3505050600101613aff565b50620f424067ffffffffffffffff83161115610c1b5760405162461bcd60e51b815260206004820152601b60248201527f53706c69747320776569676874732073756d20746f6f206869676800000000006044820152606401610bf9565b6000818152600183016020526040812054613cda575081546001818101845560008481526020808220909301849055845484825282860190935260409020919091556110a6565b5060006110a6565b606081600001805480602002602001604051908101604052809291908181526020018280548015613d3257602002820191906000526020600020905b815481526020019060010190808311613d1e575b50505050509050919050565b8060020154613d4c83613658565b146116305760405162461bcd60e51b815260206004820152601a60248201527f496e76616c69642063757272656e74206265616d73206c6973740000000000006044820152606401610bf9565b8460005b8351811015611c69576000848281518110613dba57613dba615bb0565b60200260200101519050600080613dd4838a8a8c8a614a4e565b91509150613e59613de9846020015160401c90565b6001600160a01b03168363ffffffff168363ffffffff16633b9aca0063ffffffff7f00000000000000000000000000000000000000000000000000000000000000001680840685028290048184068602839004958202929092049381900492049190910391909102919091010390565b90940393505050600101613d9d565b6000806000613e7686614b1c565b915091506000613e834290565b63ffffffff169050811580613ea857506fffffffffffffffffffffffffffffffff8816155b15613eb75792506110c6915050565b63ffffffff613eda6fffffffffffffffffffffffffffffffff8a16858584614c79565b15613eea5793506110c692505050565b818763ffffffff16118015613f045750808763ffffffff16105b15613f4957613f2d896fffffffffffffffffffffffffffffffff1685858a63ffffffff16614c79565b15613f40578663ffffffff169150613f49565b5063ffffffff86165b818663ffffffff16118015613f635750808663ffffffff16105b15613fa857613f8c896fffffffffffffffffffffffffffffffff1685858963ffffffff16614c79565b15613f9f578563ffffffff169150613fa8565b5063ffffffff85165b600281830104828103613fc15794506110c69350505050565b613fdf8a6fffffffffffffffffffffffffffffffff16868684614c79565b15613fec57809250613ff0565b8091505b50613fa8565b6000805b865160408051808201909152600080825260208201529083109081156140375788848151811061402c5761402c615bb0565b602002602001015190505b855160408051808201909152600080825260208201529084109081156140745787858151811061406957614069615bb0565b602002602001015190505b83801561407e5750815b156140d057805183511415806140ba5750602081015160401c6001600160a01b03166140ae846020015160401c90565b6001600160a01b031614155b156140d0576140c98382614d3f565b9350831591505b8380156140da5750815b156141d9578251600090815260208d90526040812090806140fc868e8e614d66565b915091506000806141148661410e4290565b8e614d66565b915091506000614128896020015160401c90565b6001600160a01b0316905061414786868561414285615e62565b6145fd565b614153868584846145fd565b600061415e8661432b565b9050600061416b8561432b565b90508063ffffffff168263ffffffff161180156141945750600388015463ffffffff8083169116115b156141cc576003880180547fffffffffffffffffffffffffffffffffffffffffffffffffffffffff000000001663ffffffff83161790555b50505050505050506142fe565b8315614233578251600090815260208d90526040812090806141fc868e8e614d66565b915091506000614210876020015160401c90565b6001600160a01b0316905061422a84848461414285615e62565b505050506142fe565b81156142f5578051600090815260208d905260408120908061425684428c614d66565b91509150600061426a856020015160401c90565b6001600160a01b03169050614281848484846145fd565b600061428c8461432b565b600386015490915063ffffffff168015806142b257508163ffffffff168163ffffffff16115b156142ea576003860180547fffffffffffffffffffffffffffffffffffffffffffffffffffffffff000000001663ffffffff84161790555b5050505050506142fe565b50505050614321565b831561430b576001909501945b8115614318576001909401935b50505050613ffa565b5050505050505050565b60007f000000000000000000000000000000000000000000000000000000000000000063ffffffff168263ffffffff168161436857614368615d13565b046001019050919050565b60008281527f000000000000000000000000000000000000000000000000000000000000000060205260409020546143aa8261327f565b146116305760405162461bcd60e51b815260206004820181905260248201527f496e76616c69642063757272656e742073706c697473207265636569766572736044820152606401610bf9565b6001600160a01b0381163b6144745760405162461bcd60e51b815260206004820152602d60248201527f455243313936373a206e657720696d706c656d656e746174696f6e206973206e60448201527f6f74206120636f6e7472616374000000000000000000000000000000000000006064820152608401610bf9565b807f360894a13ba1a3210667c828492db98dca3e2076cc3735a920a3ca505d382bbc612a95565b6144a483614d7a565b6000825111806144b15750805b1561255d57610c1b8383614dba565b600081815260018301602052604081205480156145a95760006144e4600183615cca565b85549091506000906144f890600190615cca565b905081811461455d57600086600001828154811061451857614518615bb0565b906000526020600020015490508087600001848154811061453b5761453b615bb0565b6000918252602080832090910192909255918252600188019052604090208390555b855486908061456e5761456e615e9a565b6001900381819060005260206000200160009055905585600101600086815260200190815260200160002060009055600193505050506110a6565b60009150506110a6565b5092915050565b60004263ffffffff7f00000000000000000000000000000000000000000000000000000000000000008116908216816145f5576145f5615d13565b069003919050565b8163ffffffff168363ffffffff160315610c1b57600484016146268163ffffffff861684614ddf565b61463f8163ffffffff851661463a85615e62565b614ddf565b5050505050565b60008181527f00000000000000000000000000000000000000000000000000000000000000006020908152604080832085845290915281206003015463ffffffff16906146924261432b565b905063ffffffff821615806146b257508163ffffffff168163ffffffff16105b156146ba5750805b9250929050565b6060825167ffffffffffffffff8111156146dd576146dd615223565b604051908082528060200260200182016040528015614706578160200160208202803683370190505b50905060005b835181101561483157600084828151811061472957614729615bb0565b602002602001015190506000816000015190508160200151516000146147a75780156147975760405162461bcd60e51b815260206004820152601d60248201527f456e7472792077697468206861736820616e64207265636569766572730000006044820152606401610bf9565b6147a48260200151613658565b90505b868484815181106147ba576147ba615bb0565b60200260200101818152505061481a878284604001518560600151604080516020808201969096528082019490945263ffffffff928316606085015291166080808401919091528151808403909101815260a09092019052805191012090565b96505050808061482990615ec9565b91505061470c565b508184146123a25760405162461bcd60e51b815260206004820152601560248201527f496e76616c6964206265616d7320686973746f727900000000000000000000006044820152606401610bf9565b602083015180516000919082905b808210156148db5760006002838301049050888482815181106148b4576148b4615bb0565b60200260200101516000015110156148d1578060010192506148d5565b8091505b5061488f565b506040860151606087015160005b845184101561495957600085858151811061490657614906615bb0565b602002602001015190508a8160000151146149215750614959565b6000806149318387878e8e614a4e565b91509150614946613de9846020015160401c90565b60019097019690930192506148e9915050565b9998505050505050505050565b60006149bb826040518060400160405280602081526020017f5361666545524332303a206c6f772d6c6576656c2063616c6c206661696c6564815250856001600160a01b0316614ef39092919063ffffffff16565b90508051600014806149dc5750808060200190518101906149dc9190615f01565b61255d5760405162461bcd60e51b815260206004820152602a60248201527f5361666545524332303a204552433230206f7065726174696f6e20646964206e60448201527f6f742073756363656564000000000000000000000000000000000000000000006064820152608401610bf9565b600080614a5f876020015160201c90565b91508163ffffffff16600003614a73578591505b6000614a80886020015190565b63ffffffff84811691168101915064ffffffffff82161480614aae57508563ffffffff168164ffffffffff16115b15614abc575063ffffffff85165b8463ffffffff168363ffffffff161015614ad4578492505b8363ffffffff168164ffffffffff161115614af2575063ffffffff83165b8263ffffffff168164ffffffffff161015614b10575063ffffffff82165b90509550959350505050565b60606000606483511115614b725760405162461bcd60e51b815260206004820152601860248201527f546f6f206d616e79206265616d732072656365697665727300000000000000006044820152606401610bf9565b825167ffffffffffffffff811115614b8c57614b8c615223565b604051908082528060200260200182016040528015614bb5578160200160208202803683370190505b50915060005b8351811015614c73576000848281518110614bd857614bd8615bb0565b602002602001015190506000821115614c5d57614c11856001840381518110614c0357614c03615bb0565b602002602001015182614d3f565b614c5d5760405162461bcd60e51b815260206004820152601a60248201527f4265616d7320726563656976657273206e6f7420736f727465640000000000006044820152606401610bf9565b614c68848483614f02565b925050600101614bbb565b50915091565b600080805b84811015614d32576020600582901b8701810151604081901c9163ffffffff9082901c81169116818711614cb457505050614d2a565b86811115614cbf5750855b633b9aca007f000000000000000000000000000000000000000000000000000000000000000063ffffffff168084068502829004818504828504038287028490040291840686029290920401038501945089851115614d26576000955050505050506110c6565b5050505b600101614c7e565b5060019695505050505050565b8051825160009114614d56575080518251106110a6565b60208281015190840151106110a3565b600080610f6e8585854263ffffffff614a4e565b614d83816143f7565b6040516001600160a01b038216907fbc7cd75a20ee27fd9adebab32041f755214dbc6bffa90cc0225b39da2e5c2d3b90600090a250565b60606110a38383604051806060016040528060278152602001615f8d60279139615025565b633b9aca0060008163ffffffff7f0000000000000000000000000000000000000000000000000000000000000000168402059050600082847f000000000000000000000000000000000000000000000000000000000000000063ffffffff168781614e4c57614e4c615d13565b060281614e5b57614e5b615d13565b0590506000866000614e6c8861432b565b63ffffffff168152602081019190915260400160002080547001000000000000000000000000000000007fffffffffffffffffffffffffffffffff00000000000000000000000000000000821695859003600f92830b016fffffffffffffffffffffffffffffffff90811696871782900490920b9094011690920290921790555050505050565b60606110c68484600085615093565b600080614f13836020015160401c90565b90507f00000000000000000000000000000000000000000000000000000000000000006001600160a01b0316816001600160a01b03161015614f975760405162461bcd60e51b815260206004820181905260248201527f4265616d7320726563656976657220616d7450657253656320746f6f206c6f776044820152606401610bf9565b600080614fa9854263ffffffff614d66565b915091508063ffffffff168263ffffffff1603614fcb578593505050506123a2565b6000836001600160a01b031690508263ffffffff16602082901b1790508163ffffffff16602082901b1790508088888151811061500a5761500a615bb0565b60209081029190910101525050600190940195945050505050565b6060600080856001600160a01b0316856040516150429190615f47565b600060405180830381855af49150503d806000811461507d576040519150601f19603f3d011682016040523d82523d6000602084013e615082565b606091505b509150915061302186838387615185565b60608247101561510b5760405162461bcd60e51b815260206004820152602660248201527f416464726573733a20696e73756666696369656e742062616c616e636520666f60448201527f722063616c6c00000000000000000000000000000000000000000000000000006064820152608401610bf9565b600080866001600160a01b031685876040516151279190615f47565b60006040518083038185875af1925050503d8060008114615164576040519150601f19603f3d011682016040523d82523d6000602084013e615169565b606091505b509150915061517a87838387615185565b979650505050505050565b606083156151f45782516000036151ed576001600160a01b0385163b6151ed5760405162461bcd60e51b815260206004820152601d60248201527f416464726573733a2063616c6c20746f206e6f6e2d636f6e74726163740000006044820152606401610bf9565b50816110c6565b6110c683838151156152095781518083602001fd5b8060405162461bcd60e51b8152600401610bf99190615f59565b7f4e487b7100000000000000000000000000000000000000000000000000000000600052604160045260246000fd5b6040805190810167ffffffffffffffff8111828210171561527557615275615223565b60405290565b6040516080810167ffffffffffffffff8111828210171561527557615275615223565b604051601f8201601f1916810167ffffffffffffffff811182821017156152c7576152c7615223565b604052919050565b600067ffffffffffffffff8211156152e9576152e9615223565b5060051b60200190565b803563ffffffff8116811461530757600080fd5b919050565b600082601f83011261531d57600080fd5b8135602061533261532d836152cf565b61529e565b82815260069290921b8401810191818101908684111561535157600080fd5b8286015b84811015615397576040818903121561536e5760008081fd5b615376615252565b813581526153858583016152f3565b81860152835291830191604001615355565b509695505050505050565b600080604083850312156153b557600080fd5b82359150602083013567ffffffffffffffff8111156153d357600080fd5b6153df8582860161530c565b9150509250929050565b6001600160a01b038116811461123f57600080fd5b60006020828403121561541057600080fd5b81356123a2816153e9565b6020808252825182820181905260009190848201906040850190845b8181101561545c5783516001600160a01b031683529284019291840191600101615437565b50909695505050505050565b600082601f83011261547957600080fd5b8135602061548961532d836152cf565b82815260069290921b840181019181810190868411156154a857600080fd5b8286015b8481101561539757604081890312156154c55760008081fd5b6154cd615252565b8135815284820135858201528352918301916040016154ac565b600080600080600080600060e0888a03121561550257600080fd5b873596506020880135615514816153e9565b9550604088013567ffffffffffffffff8082111561553157600080fd5b61553d8b838c01615468565b965060608a0135915081600f0b821461555557600080fd5b9094506080890135908082111561556b57600080fd5b506155788a828b01615468565b93505061558760a089016152f3565b915061559560c089016152f3565b905092959891949750929550565b6000806000606084860312156155b857600080fd5b8335925060208401356155ca816153e9565b9150604084013567ffffffffffffffff8111156155e657600080fd5b6155f28682870161530c565b9150509250925092565b60008060006060848603121561561157600080fd5b833592506020840135615623816153e9565b9150615631604085016152f3565b90509250925092565b6000806040838503121561564d57600080fd5b82359150602083013561565f816153e9565b809150509250929050565b6000806000806080858703121561568057600080fd5b843593506020850135615692816153e9565b9250604085013567ffffffffffffffff8111156156ae57600080fd5b6156ba87828801615468565b9250506156c9606086016152f3565b905092959194509250565b6000806000604084860312156156e957600080fd5b83359250602084013567ffffffffffffffff8082111561570857600080fd5b818601915086601f83011261571c57600080fd5b81358181111561572b57600080fd5b8760208260051b850101111561574057600080fd5b6020830194508093505050509250925092565b6000806040838503121561576657600080fd5b8235615771816153e9565b915060208381013567ffffffffffffffff8082111561578f57600080fd5b818601915086601f8301126157a357600080fd5b8135818111156157b5576157b5615223565b6157c784601f19601f8401160161529e565b915080825287848285010111156157dd57600080fd5b80848401858401376000848284010152508093505050509250929050565b60006020828403121561580d57600080fd5b813567ffffffffffffffff81111561582457600080fd5b6110c68482850161530c565b60006020828403121561584257600080fd5b5035919050565b60006020828403121561585b57600080fd5b6110a3826152f3565b600080600080600060a0868803121561587c57600080fd5b8535945061588d60208701356153e9565b60208601359350604086013592506060860135915067ffffffffffffffff608087013511156158bb57600080fd5b6080860135860187601f8201126158d157600080fd5b6158de61532d82356152cf565b81358082526020808301929160051b8401018a8111156158fd57600080fd5b602084015b818110156159a95767ffffffffffffffff8135111561592057600080fd5b803585016080601f19828f0301121561593857600080fd5b61594061527b565b6020820135815267ffffffffffffffff6040830135111561596057600080fd5b6159738e60206040850135850101615468565b6020820152615984606083016152f3565b6040820152615995608083016152f3565b606082015285525060209384019301615902565b50508093505050509295509295909350565b600080604083850312156159ce57600080fd5b6159d7836152f3565b9150602083013561565f816153e9565b6000602082840312156159f957600080fd5b813567ffffffffffffffff811115615a1057600080fd5b6110c684828501615468565b600080600060608486031215615a3157600080fd5b8335615a3c816153e9565b92506020840135615a4c816153e9565b929592945050506040919091013590565b80356fffffffffffffffffffffffffffffffff8116811461530757600080fd5b60008060008060808587031215615a9357600080fd5b84359350602085013592506040850135615aac816153e9565b91506156c960608601615a5d565b600080600060608486031215615acf57600080fd5b83359250602084013567ffffffffffffffff811115615aed57600080fd5b615af98682870161530c565b92505061563160408501615a5d565b60008060008060808587031215615b1e57600080fd5b8435935060208501359250615b35604086016152f3565b91506156c9606086016152f3565b7f4e487b7100000000000000000000000000000000000000000000000000000000600052601160045260246000fd5b600081600f0b7fffffffffffffffffffffffffffffffff800000000000000000000000000000008103615ba757615ba7615b43565b60000392915050565b7f4e487b7100000000000000000000000000000000000000000000000000000000600052603260045260246000fd5b600082357fffffffffffffffffffffffffffffffffffffffffffffffffffffffffffffffc1833603018112615c1357600080fd5b9190910192915050565b60008083357fffffffffffffffffffffffffffffffffffffffffffffffffffffffffffffffe1843603018112615c5257600080fd5b83018035915067ffffffffffffffff821115615c6d57600080fd5b6020019150368190038213156146ba57600080fd5b60208152816020820152818360408301376000818301604090810191909152601f909201601f19160101919050565b600060208284031215615cc357600080fd5b5051919050565b818103818111156110a6576110a6615b43565b600063ffffffff808316818103615cf657615cf6615b43565b6001019392505050565b808201808211156110a6576110a6615b43565b7f4e487b7100000000000000000000000000000000000000000000000000000000600052601260045260246000fd5b6fffffffffffffffffffffffffffffffff8181168382160190808211156145b3576145b3615b43565b602080825282518282018190526000919060409081850190868401855b82811015615db35781518051855286015163ffffffff16868501529284019290850190600101615d88565b5091979650505050505050565b6000604082016fffffffffffffffffffffffffffffffff851683526020604081850152818551808452606086019150828701935060005b81811015615e1357845183529383019391830191600101615df7565b5090979650505050505050565b602080825282518282018190526000919060409081850190868401855b82811015615db357815180518552860151868501529284019290850190600101615e3d565b60007f80000000000000000000000000000000000000000000000000000000000000008203615e9357615e93615b43565b5060000390565b7f4e487b7100000000000000000000000000000000000000000000000000000000600052603160045260246000fd5b60007fffffffffffffffffffffffffffffffffffffffffffffffffffffffffffffffff8203615efa57615efa615b43565b5060010190565b600060208284031215615f1357600080fd5b815180151581146123a257600080fd5b60005b83811015615f3e578181015183820152602001615f26565b50506000910152565b60008251615c13818460208701615f23565b6020815260008251806020840152615f78816040850160208701615f23565b601f01601f1916919091016040019291505056fe416464726573733a206c6f772d6c6576656c2064656c65676174652063616c6c206661696c6564a26469706673582212208b2d5b748cebbda03d499a5dc423d02d897e71106fd0eb555a1e6d625595f6dd64736f6c63430008130033",
    "linkReferences": {}
  },
  "methodIdentifiers": {
    "AMT_PER_SEC_EXTRA_DECIMALS()": "5429f175",
    "AMT_PER_SEC_MULTIPLIER()": "387d2a2f",
    "DRIVER_ID_OFFSET()": "8e48a7e5",
    "MAX_DRIPS_RECEIVERS()": "aff01135",
    "MAX_SPLITS_RECEIVERS()": "f11d5139",
    "MAX_TOTAL_BALANCE()": "444e249f",
    "TOTAL_SPLITS_WEIGHT()": "a69aff3c",
    "acceptAdmin()": "0e18b681",
    "admin()": "f851a440",
    "allPausers()": "09d48a94",
    "balanceAt(uint256,address,(uint256,uint256)[],uint32)": "2776f94c",
    "beamsState(uint256,address)": "2df4c621",
    "collect(uint256,address)": "8d3c100a",
    "collectable(uint256,address)": "1ec026c8",
    "cycleSecs()": "631d669c",
    "driverAddress(uint32)": "7e5b5a83",
    "emitUserMetadata(uint256,(bytes32,bytes)[])": "4dc4d4d6",
    "give(uint256,uint256,address,uint128)": "d9e01070",
    "grantPauser(address)": "09c1d95f",
    "hashBeams((uint256,uint256)[])": "b1cad7ee",
    "hashBeamsHistory(bytes32,bytes32,uint32,uint32)": "fd701046",
    "hashSplits((uint256,uint32)[])": "577e012c",
    "implementation()": "5c60da1b",
    "isPaused()": "b187bd26",
    "isPauser(address)": "46fbf68e",
    "minAmtPerSec()": "c82051dd",
    "nextDriverId()": "98aba1cf",
    "pause()": "8456cb59",
    "proposeNewAdmin(address)": "a6376746",
    "proposedAdmin()": "32f751ec",
    "proxiableUUID()": "52d1902d",
    "receivableBeamsCycles(uint256,address)": "b3855f71",
    "receiveBeams(uint256,address,uint32)": "1bb4c0f5",
    "receiveBeamsResult(uint256,address,uint32)": "aac320a2",
    "registerDriver(address)": "f0f4fd5e",
    "renounceAdmin()": "8bad0c0a",
    "revokePauser(address)": "7fe76df0",
    "setBeams(uint256,address,(uint256,uint256)[],int128,(uint256,uint256)[],uint32,uint32)": "0c55b5ec",
    "setSplits(uint256,(uint256,uint32)[])": "02cfc753",
    "split(uint256,address,(uint256,uint32)[])": "0ea2063a",
    "splitResult(uint256,(uint256,uint32)[],uint128)": "f4e45f2d",
    "splitsHash(uint256)": "74dd0565",
    "splittable(uint256,address)": "f98e7e1d",
    "squeezeBeams(uint256,address,uint256,bytes32,(bytes32,(uint256,uint256)[],uint32,uint32)[])": "a6b07d19",
    "squeezeBeamsResult(uint256,address,uint256,bytes32,(bytes32,(uint256,uint256)[],uint32,uint32)[])": "c51fa3a1",
    "totalBalance(address)": "6eacd398",
    "unpause()": "3f4ba83a",
    "updateDriverAddress(uint32,address)": "aeefca1c",
    "upgradeTo(address)": "3659cfe6",
    "upgradeToAndCall(address,bytes)": "4f1ef286",
    "withdraw(address,address,uint256)": "d9caed12"
  },
  "id": 55
}