{
  "abi": [
    {
      "inputs": [
        {
          "internalType": "contract BeamsHub",
          "name": "_beamsHub",
          "type": "address"
        },
        {
          "internalType": "uint32",
          "name": "_driverId",
          "type": "uint32"
        }
      ],
      "stateMutability": "nonpayable",
      "type": "constructor"
    },
    {
      "anonymous": false,
      "inputs": [
        {
          "indexed": false,
          "internalType": "address",
          "name": "previousAdmin",
          "type": "address"
        },
        {
          "indexed": false,
          "internalType": "address",
          "name": "newAdmin",
          "type": "address"
        }
      ],
      "name": "AdminChanged",
      "type": "event"
    },
    {
      "anonymous": false,
      "inputs": [
        {
          "indexed": true,
          "internalType": "address",
          "name": "beacon",
          "type": "address"
        }
      ],
      "name": "BeaconUpgraded",
      "type": "event"
    },
    {
      "anonymous": false,
      "inputs": [
        {
          "indexed": true,
          "internalType": "uint256",
          "name": "userId",
          "type": "uint256"
        },
        {
          "indexed": true,
          "internalType": "bytes32",
          "name": "receiversHash",
          "type": "bytes32"
        }
      ],
      "name": "CreatedSplits",
      "type": "event"
    },
    {
      "anonymous": false,
      "inputs": [
        {
          "indexed": true,
          "internalType": "address",
          "name": "currentAdmin",
          "type": "address"
        },
        {
          "indexed": true,
          "internalType": "address",
          "name": "newAdmin",
          "type": "address"
        }
      ],
      "name": "NewAdminProposed",
      "type": "event"
    },
    {
      "anonymous": false,
      "inputs": [
        {
          "indexed": true,
          "internalType": "address",
          "name": "pauser",
          "type": "address"
        }
      ],
      "name": "Paused",
      "type": "event"
    },
    {
      "anonymous": false,
      "inputs": [
        {
          "indexed": true,
          "internalType": "address",
          "name": "pauser",
          "type": "address"
        },
        {
          "indexed": true,
          "internalType": "address",
          "name": "admin",
          "type": "address"
        }
      ],
      "name": "PauserGranted",
      "type": "event"
    },
    {
      "anonymous": false,
      "inputs": [
        {
          "indexed": true,
          "internalType": "address",
          "name": "pauser",
          "type": "address"
        },
        {
          "indexed": true,
          "internalType": "address",
          "name": "admin",
          "type": "address"
        }
      ],
      "name": "PauserRevoked",
      "type": "event"
    },
    {
      "anonymous": false,
      "inputs": [
        {
          "indexed": true,
          "internalType": "address",
          "name": "pauser",
          "type": "address"
        }
      ],
      "name": "Unpaused",
      "type": "event"
    },
    {
      "anonymous": false,
      "inputs": [
        {
          "indexed": true,
          "internalType": "address",
          "name": "implementation",
          "type": "address"
        }
      ],
      "name": "Upgraded",
      "type": "event"
    },
    {
      "inputs": [],
      "name": "acceptAdmin",
      "outputs": [],
      "stateMutability": "nonpayable",
      "type": "function"
    },
    {
      "inputs": [],
      "name": "admin",
      "outputs": [
        {
          "internalType": "address",
          "name": "",
          "type": "address"
        }
      ],
      "stateMutability": "view",
      "type": "function"
    },
    {
      "inputs": [],
      "name": "allPausers",
      "outputs": [
        {
          "internalType": "address[]",
          "name": "pausersList",
          "type": "address[]"
        }
      ],
      "stateMutability": "view",
      "type": "function"
    },
    {
      "inputs": [],
      "name": "beamsHub",
      "outputs": [
        {
          "internalType": "contract BeamsHub",
          "name": "",
          "type": "address"
        }
      ],
      "stateMutability": "view",
      "type": "function"
    },
    {
      "inputs": [
        {
          "components": [
            {
              "internalType": "uint256",
              "name": "userId",
              "type": "uint256"
            },
            {
              "internalType": "uint32",
              "name": "weight",
              "type": "uint32"
            }
          ],
          "internalType": "struct SplitsReceiver[]",
          "name": "receivers",
          "type": "tuple[]"
        },
        {
          "components": [
            {
              "internalType": "bytes32",
              "name": "key",
              "type": "bytes32"
            },
            {
              "internalType": "bytes",
              "name": "value",
              "type": "bytes"
            }
          ],
          "internalType": "struct UserMetadata[]",
          "name": "userMetadata",
          "type": "tuple[]"
        }
      ],
      "name": "createSplits",
      "outputs": [
        {
          "internalType": "uint256",
          "name": "userId",
          "type": "uint256"
        }
      ],
      "stateMutability": "nonpayable",
      "type": "function"
    },
    {
      "inputs": [],
      "name": "driverId",
      "outputs": [
        {
          "internalType": "uint32",
          "name": "",
          "type": "uint32"
        }
      ],
      "stateMutability": "view",
      "type": "function"
    },
    {
      "inputs": [
        {
          "internalType": "address",
          "name": "pauser",
          "type": "address"
        }
      ],
      "name": "grantPauser",
      "outputs": [],
      "stateMutability": "nonpayable",
      "type": "function"
    },
    {
      "inputs": [],
      "name": "implementation",
      "outputs": [
        {
          "internalType": "address",
          "name": "",
          "type": "address"
        }
      ],
      "stateMutability": "view",
      "type": "function"
    },
    {
      "inputs": [],
      "name": "isPaused",
      "outputs": [
        {
          "internalType": "bool",
          "name": "",
          "type": "bool"
        }
      ],
      "stateMutability": "view",
      "type": "function"
    },
    {
      "inputs": [
        {
          "internalType": "address",
          "name": "pauser",
          "type": "address"
        }
      ],
      "name": "isPauser",
      "outputs": [
        {
          "internalType": "bool",
          "name": "isAddrPauser",
          "type": "bool"
        }
      ],
      "stateMutability": "view",
      "type": "function"
    },
    {
      "inputs": [],
      "name": "nextUserId",
      "outputs": [
        {
          "internalType": "uint256",
          "name": "userId",
          "type": "uint256"
        }
      ],
      "stateMutability": "view",
      "type": "function"
    },
    {
      "inputs": [],
      "name": "pause",
      "outputs": [],
      "stateMutability": "nonpayable",
      "type": "function"
    },
    {
      "inputs": [
        {
          "internalType": "address",
          "name": "newAdmin",
          "type": "address"
        }
      ],
      "name": "proposeNewAdmin",
      "outputs": [],
      "stateMutability": "nonpayable",
      "type": "function"
    },
    {
      "inputs": [],
      "name": "proposedAdmin",
      "outputs": [
        {
          "internalType": "address",
          "name": "",
          "type": "address"
        }
      ],
      "stateMutability": "view",
      "type": "function"
    },
    {
      "inputs": [],
      "name": "proxiableUUID",
      "outputs": [
        {
          "internalType": "bytes32",
          "name": "",
          "type": "bytes32"
        }
      ],
      "stateMutability": "view",
      "type": "function"
    },
    {
      "inputs": [],
      "name": "renounceAdmin",
      "outputs": [],
      "stateMutability": "nonpayable",
      "type": "function"
    },
    {
      "inputs": [
        {
          "internalType": "address",
          "name": "pauser",
          "type": "address"
        }
      ],
      "name": "revokePauser",
      "outputs": [],
      "stateMutability": "nonpayable",
      "type": "function"
    },
    {
      "inputs": [],
      "name": "totalSplitsWeight",
      "outputs": [
        {
          "internalType": "uint32",
          "name": "",
          "type": "uint32"
        }
      ],
      "stateMutability": "view",
      "type": "function"
    },
    {
      "inputs": [],
      "name": "unpause",
      "outputs": [],
      "stateMutability": "nonpayable",
      "type": "function"
    },
    {
      "inputs": [
        {
          "internalType": "address",
          "name": "newImplementation",
          "type": "address"
        }
      ],
      "name": "upgradeTo",
      "outputs": [],
      "stateMutability": "nonpayable",
      "type": "function"
    },
    {
      "inputs": [
        {
          "internalType": "address",
          "name": "newImplementation",
          "type": "address"
        },
        {
          "internalType": "bytes",
          "name": "data",
          "type": "bytes"
        }
      ],
      "name": "upgradeToAndCall",
      "outputs": [],
      "stateMutability": "payable",
      "type": "function"
    }
  ],
  "bytecode": {
    "object": "0x3060805261018060405260176101409081527f656970313936372e6d616e616765642e73746f7261676500000000000000000061016052620000419062000148565b60a0908152506200006b604051806060016040528060258152602001620025dc6025913962000148565b610120523480156200007c57600080fd5b5060405162002601380380620026018339810160408190526200009f9162000181565b6001620000ab60a05190565b805460ff19169115159190911790556001600160a01b03821660c081905263ffffffff821660e052604080516329a6bfcf60e21b8152905163a69aff3c916004808201926020929091908290030181865afa1580156200010f573d6000803e3d6000fd5b505050506040513d601f19601f82011682018060405250810190620001359190620001c6565b63ffffffff1661010052506200020d9050565b80516020820120600090620001619061040090620001eb565b92915050565b805163ffffffff811681146200017c57600080fd5b919050565b600080604083850312156200019557600080fd5b82516001600160a01b0381168114620001ad57600080fd5b9150620001bd6020840162000167565b90509250929050565b600060208284031215620001d957600080fd5b620001e48262000167565b9392505050565b818103818111156200016157634e487b7160e01b600052601160045260246000fd5b60805160a05160c05160e05161010051610120516122e5620002f7600039600081816103c501526110ef015260008181610336015261116f015260006103940152600081816104730152818161121f015281816112ff01526113af0152600081816101e00152818161041901528181610522015281816105e101528181610615015281816108d501528181610946015281816109c101528181610cc801528181610dfd01528181610e6f0152818161100b0152818161107901526114c00152600081816106d40152818161076a01528181610a0401528181610a9a0152610b9301526122e56000f3fe60806040526004361061016a5760003560e01c80637fe76df0116100cb578063a1e6a2551161007f578063c5d5e7d511610059578063c5d5e7d514610441578063eff8c2e514610461578063f851a4401461049557600080fd5b8063a1e6a255146103b6578063a6376746146103ea578063b187bd261461040a57600080fd5b80638a7f97a6116100b05780638a7f97a6146103245780638bad0c0a1461036d578063a1694a771461038257600080fd5b80637fe76df0146102ef5780638456cb591461030f57600080fd5b80633f4ba83a116101225780634f1ef286116101075780634f1ef286146102a457806352d1902d146102b75780635c60da1b146102da57600080fd5b80633f4ba83a1461025f57806346fbf68e1461027457600080fd5b80630e18b681116101535780630e18b681146101bc57806332f751ec146101d15780633659cfe61461023f57600080fd5b806309c1d95f1461016f57806309d48a9414610191575b600080fd5b34801561017b57600080fd5b5061018f61018a366004611cb1565b6104aa565b005b34801561019d57600080fd5b506101a66105da565b6040516101b39190611ccc565b60405180910390f35b3480156101c857600080fd5b5061018f61060d565b3480156101dd57600080fd5b507f00000000000000000000000000000000000000000000000000000000000000006003015473ffffffffffffffffffffffffffffffffffffffff165b60405173ffffffffffffffffffffffffffffffffffffffff90911681526020016101b3565b34801561024b57600080fd5b5061018f61025a366004611cb1565b6106bd565b34801561026b57600080fd5b5061018f610858565b34801561028057600080fd5b5061029461028f366004611cb1565b6109b8565b60405190151581526020016101b3565b61018f6102b2366004611d55565b6109ed565b3480156102c357600080fd5b506102cc610b79565b6040519081526020016101b3565b3480156102e657600080fd5b5061021a610c4b565b3480156102fb57600080fd5b5061018f61030a366004611cb1565b610c55565b34801561031b57600080fd5b5061018f610d80565b34801561033057600080fd5b506103587f000000000000000000000000000000000000000000000000000000000000000081565b60405163ffffffff90911681526020016101b3565b34801561037957600080fd5b5061018f610ee4565b34801561038e57600080fd5b506103587f000000000000000000000000000000000000000000000000000000000000000081565b3480156103c257600080fd5b507f0000000000000000000000000000000000000000000000000000000000000000546102cc565b3480156103f657600080fd5b5061018f610405366004611cb1565b610f5a565b34801561041657600080fd5b507f00000000000000000000000000000000000000000000000000000000000000005460ff16610294565b34801561044d57600080fd5b506102cc61045c366004611e35565b611072565b34801561046d57600080fd5b5061021a7f000000000000000000000000000000000000000000000000000000000000000081565b3480156104a157600080fd5b5061021a611424565b336104b3611424565b73ffffffffffffffffffffffffffffffffffffffff161461051b5760405162461bcd60e51b815260206004820152601460248201527f43616c6c6572206e6f74207468652061646d696e00000000000000000000000060448201526064015b60405180910390fd5b61054860017f0000000000000000000000000000000000000000000000000000000000000000018261142e565b6105945760405162461bcd60e51b815260206004820152601b60248201527f4164647265737320616c726561647920697320612070617573657200000000006044820152606401610512565b604051339073ffffffffffffffffffffffffffffffffffffffff8316907fbb7fff487ca65a5841fe463ac801812d2aeb3c2059f6e44b2b3cdab8ee7c3db090600090a350565b60606106087f0000000000000000000000000000000000000000000000000000000000000000600101611457565b905090565b3361064f60037f0000000000000000000000000000000000000000000000000000000000000000015473ffffffffffffffffffffffffffffffffffffffff1690565b73ffffffffffffffffffffffffffffffffffffffff16146106b25760405162461bcd60e51b815260206004820152601d60248201527f43616c6c6572206e6f74207468652070726f706f7365642061646d696e0000006044820152606401610512565b6106bb33611464565b565b73ffffffffffffffffffffffffffffffffffffffff7f00000000000000000000000000000000000000000000000000000000000000001630036107685760405162461bcd60e51b815260206004820152602c60248201527f46756e6374696f6e206d7573742062652063616c6c6564207468726f7567682060448201527f64656c656761746563616c6c00000000000000000000000000000000000000006064820152608401610512565b7f000000000000000000000000000000000000000000000000000000000000000073ffffffffffffffffffffffffffffffffffffffff166107a761156f565b73ffffffffffffffffffffffffffffffffffffffff16146108305760405162461bcd60e51b815260206004820152602c60248201527f46756e6374696f6e206d7573742062652063616c6c6564207468726f7567682060448201527f6163746976652070726f787900000000000000000000000000000000000000006064820152608401610512565b610839816115af565b604080516000808252602082019092526108559183919061161b565b50565b33610861611424565b73ffffffffffffffffffffffffffffffffffffffff1614806108875750610887336109b8565b6108d35760405162461bcd60e51b815260206004820181905260248201527f43616c6c6572206e6f74207468652061646d696e206f722061207061757365726044820152606401610512565b7f00000000000000000000000000000000000000000000000000000000000000005460ff166109445760405162461bcd60e51b815260206004820152601360248201527f436f6e7472616374206e6f7420706175736564000000000000000000000000006044820152606401610512565b7f000000000000000000000000000000000000000000000000000000000000000080547fffffffffffffffffffffffffffffffffffffffffffffffffffffffffffffff0016905560405133907f5db9ee0a495bf2e6ff9c91a7834c1ba4fdd244a5e8aa4e537bd38aeae4b073aa90600090a2565b60006109e760017f000000000000000000000000000000000000000000000000000000000000000001836117eb565b92915050565b73ffffffffffffffffffffffffffffffffffffffff7f0000000000000000000000000000000000000000000000000000000000000000163003610a985760405162461bcd60e51b815260206004820152602c60248201527f46756e6374696f6e206d7573742062652063616c6c6564207468726f7567682060448201527f64656c656761746563616c6c00000000000000000000000000000000000000006064820152608401610512565b7f000000000000000000000000000000000000000000000000000000000000000073ffffffffffffffffffffffffffffffffffffffff16610ad761156f565b73ffffffffffffffffffffffffffffffffffffffff1614610b605760405162461bcd60e51b815260206004820152602c60248201527f46756e6374696f6e206d7573742062652063616c6c6564207468726f7567682060448201527f6163746976652070726f787900000000000000000000000000000000000000006064820152608401610512565b610b69826115af565b610b758282600161161b565b5050565b60003073ffffffffffffffffffffffffffffffffffffffff7f00000000000000000000000000000000000000000000000000000000000000001614610c265760405162461bcd60e51b815260206004820152603860248201527f555550535570677261646561626c653a206d757374206e6f742062652063616c60448201527f6c6564207468726f7567682064656c656761746563616c6c00000000000000006064820152608401610512565b507f360894a13ba1a3210667c828492db98dca3e2076cc3735a920a3ca505d382bbc90565b600061060861156f565b33610c5e611424565b73ffffffffffffffffffffffffffffffffffffffff1614610cc15760405162461bcd60e51b815260206004820152601460248201527f43616c6c6572206e6f74207468652061646d696e0000000000000000000000006044820152606401610512565b610cee60017f0000000000000000000000000000000000000000000000000000000000000000018261181a565b610d3a5760405162461bcd60e51b815260206004820152601760248201527f41646472657373206973206e6f742061207061757365720000000000000000006044820152606401610512565b604051339073ffffffffffffffffffffffffffffffffffffffff8316907ffd55549bcbafb9531a61db3cfb88d1cca64e215b12def56e6ea913fe1ac91fd290600090a350565b33610d89611424565b73ffffffffffffffffffffffffffffffffffffffff161480610daf5750610daf336109b8565b610dfb5760405162461bcd60e51b815260206004820181905260248201527f43616c6c6572206e6f74207468652061646d696e206f722061207061757365726044820152606401610512565b7f00000000000000000000000000000000000000000000000000000000000000005460ff1615610e6d5760405162461bcd60e51b815260206004820152600f60248201527f436f6e74726163742070617573656400000000000000000000000000000000006044820152606401610512565b7f000000000000000000000000000000000000000000000000000000000000000080547fffffffffffffffffffffffffffffffffffffffffffffffffffffffffffffff0016600117905560405133907f62e78cea01bee320cd4e420270b5ea74000d11b0c9f74754ebdbfc544b05a25890600090a2565b33610eed611424565b73ffffffffffffffffffffffffffffffffffffffff1614610f505760405162461bcd60e51b815260206004820152601460248201527f43616c6c6572206e6f74207468652061646d696e0000000000000000000000006044820152606401610512565b6106bb6000611464565b33610f63611424565b73ffffffffffffffffffffffffffffffffffffffff1614610fc65760405162461bcd60e51b815260206004820152601460248201527f43616c6c6572206e6f74207468652061646d696e0000000000000000000000006044820152606401610512565b60405173ffffffffffffffffffffffffffffffffffffffff82169033907fed2d93e7985747cd1a4a093c2cc3bb73d0f177b81bdfd26020e8f20a97e8112e90600090a37f000000000000000000000000000000000000000000000000000000000000000060030180547fffffffffffffffffffffffff00000000000000000000000000000000000000001673ffffffffffffffffffffffffffffffffffffffff92909216919091179055565b600061109f7f00000000000000000000000000000000000000000000000000000000000000005460ff1690565b156110ec5760405162461bcd60e51b815260206004820152600f60248201527f436f6e74726163742070617573656400000000000000000000000000000000006044820152606401610512565b507f00000000000000000000000000000000000000000000000000000000000000008054908190600061111e83611f2c565b91905055506000805b8581101561116c5786868281811061114157611141611f64565b90506040020160200160208101906111599190611fa7565b63ffffffff169190910190600101611127565b507f000000000000000000000000000000000000000000000000000000000000000063ffffffff1681146111e25760405162461bcd60e51b815260206004820152601e60248201527f496e76616c696420746f74616c207265636569766572732077656967687400006044820152606401610512565b6040517f577e012c00000000000000000000000000000000000000000000000000000000815273ffffffffffffffffffffffffffffffffffffffff7f0000000000000000000000000000000000000000000000000000000000000000169063577e012c906112569089908990600401612011565b602060405180830381865afa158015611273573d6000803e3d6000fd5b505050506040513d601f19601f820116820180604052508101906112979190612025565b60405183907fa7e5bc4b549c288a52b0346cbff71df9b61dd9adb8a858c97257e71626083b3290600090a36040517f02cfc75300000000000000000000000000000000000000000000000000000000815273ffffffffffffffffffffffffffffffffffffffff7f000000000000000000000000000000000000000000000000000000000000000016906302cfc753906113389085908a908a9060040161203e565b600060405180830381600087803b15801561135257600080fd5b505af1158015611366573d6000803e3d6000fd5b50508415915061141b9050576040517f4dc4d4d600000000000000000000000000000000000000000000000000000000815273ffffffffffffffffffffffffffffffffffffffff7f00000000000000000000000000000000000000000000000000000000000000001690634dc4d4d6906113e890859088908890600401612061565b600060405180830381600087803b15801561140257600080fd5b505af1158015611416573d6000803e3d6000fd5b505050505b50949350505050565b600061060861183c565b60006114508373ffffffffffffffffffffffffffffffffffffffff8416611864565b9392505050565b60606000611450836118b3565b7f7e644d79422f17c01e4894b5f4f588d331ebfa28653d42ae832dc59e38c9798f61148d611424565b6040805173ffffffffffffffffffffffffffffffffffffffff928316815291841660208301520160405180910390a160037f00000000000000000000000000000000000000000000000000000000000000000180547fffffffffffffffffffffffff0000000000000000000000000000000000000000169055807fb53127684a568b3173ae13b9f8a6016e243e63b6e8ee1178d6a717850b5d61035b80547fffffffffffffffffffffffff00000000000000000000000000000000000000001673ffffffffffffffffffffffffffffffffffffffff9290921691909117905550565b60007f360894a13ba1a3210667c828492db98dca3e2076cc3735a920a3ca505d382bbc5b5473ffffffffffffffffffffffffffffffffffffffff16919050565b336115b8611424565b73ffffffffffffffffffffffffffffffffffffffff16146108555760405162461bcd60e51b815260206004820152601460248201527f43616c6c6572206e6f74207468652061646d696e0000000000000000000000006044820152606401610512565b7f4910fdfa16fed3260ed0e7147f7cc6da11a60208b5b9406d12a635614ffd91435460ff16156116535761164e8361190f565b505050565b8273ffffffffffffffffffffffffffffffffffffffff166352d1902d6040518163ffffffff1660e01b8152600401602060405180830381865afa9250505080156116d8575060408051601f3d9081017fffffffffffffffffffffffffffffffffffffffffffffffffffffffffffffffe01682019092526116d591810190612025565b60015b61174a5760405162461bcd60e51b815260206004820152602e60248201527f45524331393637557067726164653a206e657720696d706c656d656e7461746960448201527f6f6e206973206e6f7420555550530000000000000000000000000000000000006064820152608401610512565b7f360894a13ba1a3210667c828492db98dca3e2076cc3735a920a3ca505d382bbc81146117df5760405162461bcd60e51b815260206004820152602960248201527f45524331393637557067726164653a20756e737570706f727465642070726f7860448201527f6961626c655555494400000000000000000000000000000000000000000000006064820152608401610512565b5061164e8383836119c0565b73ffffffffffffffffffffffffffffffffffffffff811660009081526001830160205260408120541515611450565b60006114508373ffffffffffffffffffffffffffffffffffffffff84166119eb565b60007fb53127684a568b3173ae13b9f8a6016e243e63b6e8ee1178d6a717850b5d6103611593565b60008181526001830160205260408120546118ab575081546001818101845560008481526020808220909301849055845484825282860190935260409020919091556109e7565b5060006109e7565b60608160000180548060200260200160405190810160405280929190818152602001828054801561190357602002820191906000526020600020905b8154815260200190600101908083116118ef575b50505050509050919050565b73ffffffffffffffffffffffffffffffffffffffff81163b6119995760405162461bcd60e51b815260206004820152602d60248201527f455243313936373a206e657720696d706c656d656e746174696f6e206973206e60448201527f6f74206120636f6e7472616374000000000000000000000000000000000000006064820152608401610512565b807f360894a13ba1a3210667c828492db98dca3e2076cc3735a920a3ca505d382bbc611529565b6119c983611ade565b6000825111806119d65750805b1561164e576119e58383611b2b565b50505050565b60008181526001830160205260408120548015611ad4576000611a0f6001836121b5565b8554909150600090611a23906001906121b5565b9050818114611a88576000866000018281548110611a4357611a43611f64565b9060005260206000200154905080876000018481548110611a6657611a66611f64565b6000918252602080832090910192909255918252600188019052604090208390555b8554869080611a9957611a996121c8565b6001900381819060005260206000200160009055905585600101600086815260200190815260200160002060009055600193505050506109e7565b60009150506109e7565b611ae78161190f565b60405173ffffffffffffffffffffffffffffffffffffffff8216907fbc7cd75a20ee27fd9adebab32041f755214dbc6bffa90cc0225b39da2e5c2d3b90600090a250565b606061145083836040518060600160405280602781526020016122896027913960606000808573ffffffffffffffffffffffffffffffffffffffff1685604051611b75919061221b565b600060405180830381855af49150503d8060008114611bb0576040519150601f19603f3d011682016040523d82523d6000602084013e611bb5565b606091505b5091509150611bc686838387611bd0565b9695505050505050565b60608315611c4c578251600003611c455773ffffffffffffffffffffffffffffffffffffffff85163b611c455760405162461bcd60e51b815260206004820152601d60248201527f416464726573733a2063616c6c20746f206e6f6e2d636f6e74726163740000006044820152606401610512565b5081611c56565b611c568383611c5e565b949350505050565b815115611c6e5781518083602001fd5b8060405162461bcd60e51b81526004016105129190612237565b803573ffffffffffffffffffffffffffffffffffffffff81168114611cac57600080fd5b919050565b600060208284031215611cc357600080fd5b61145082611c88565b6020808252825182820181905260009190848201906040850190845b81811015611d1a57835173ffffffffffffffffffffffffffffffffffffffff1683529284019291840191600101611ce8565b50909695505050505050565b7f4e487b7100000000000000000000000000000000000000000000000000000000600052604160045260246000fd5b60008060408385031215611d6857600080fd5b611d7183611c88565b9150602083013567ffffffffffffffff80821115611d8e57600080fd5b818501915085601f830112611da257600080fd5b813581811115611db457611db4611d26565b604051601f82017fffffffffffffffffffffffffffffffffffffffffffffffffffffffffffffffe0908116603f01168101908382118183101715611dfa57611dfa611d26565b81604052828152886020848701011115611e1357600080fd5b8260208601602083013760006020848301015280955050505050509250929050565b60008060008060408587031215611e4b57600080fd5b843567ffffffffffffffff80821115611e6357600080fd5b818701915087601f830112611e7757600080fd5b813581811115611e8657600080fd5b8860208260061b8501011115611e9b57600080fd5b602092830196509450908601359080821115611eb657600080fd5b818701915087601f830112611eca57600080fd5b813581811115611ed957600080fd5b8860208260051b8501011115611eee57600080fd5b95989497505060200194505050565b7f4e487b7100000000000000000000000000000000000000000000000000000000600052601160045260246000fd5b60007fffffffffffffffffffffffffffffffffffffffffffffffffffffffffffffffff8203611f5d57611f5d611efd565b5060010190565b7f4e487b7100000000000000000000000000000000000000000000000000000000600052603260045260246000fd5b803563ffffffff81168114611cac57600080fd5b600060208284031215611fb957600080fd5b61145082611f93565b8183526000602080850194508260005b85811015612006578135875263ffffffff611fee848401611f93565b16878401526040968701969190910190600101611fd2565b509495945050505050565b602081526000611c56602083018486611fc2565b60006020828403121561203757600080fd5b5051919050565b838152604060208201526000612058604083018486611fc2565b95945050505050565b600060408083018684526020828186015281868352606092508286019050828760051b8701018860005b898110156121a5577fffffffffffffffffffffffffffffffffffffffffffffffffffffffffffffffa089840301845281357fffffffffffffffffffffffffffffffffffffffffffffffffffffffffffffffc18c36030181126120ec57600080fd5b8b018035845285810135368290037fffffffffffffffffffffffffffffffffffffffffffffffffffffffffffffffe101811261212757600080fd5b01858101903567ffffffffffffffff81111561214257600080fd5b80360382131561215157600080fd5b88878601528089860152808289870137600085820189015294860194601f017fffffffffffffffffffffffffffffffffffffffffffffffffffffffffffffffe016909301860192509084019060010161208b565b50909a9950505050505050505050565b818103818111156109e7576109e7611efd565b7f4e487b7100000000000000000000000000000000000000000000000000000000600052603160045260246000fd5b60005b838110156122125781810151838201526020016121fa565b50506000910152565b6000825161222d8184602087016121f7565b9190910192915050565b60208152600082518060208401526122568160408501602087016121f7565b601f017fffffffffffffffffffffffffffffffffffffffffffffffffffffffffffffffe016919091016040019291505056fe416464726573733a206c6f772d6c6576656c2064656c65676174652063616c6c206661696c6564a26469706673582212207c55f52347131fa7d4402f55db2a4b5ea294aebfe761d57c9596eeb6cdfd503564736f6c63430008130033656970313936372e696d6d757461626c6553706c6974734472697665722e73746f72616765",
    "linkReferences": {}
  },
  "methodIdentifiers": {
    "acceptAdmin()": "0e18b681",
    "admin()": "f851a440",
    "allPausers()": "09d48a94",
    "beamsHub()": "eff8c2e5",
    "createSplits((uint256,uint32)[],(bytes32,bytes)[])": "c5d5e7d5",
    "driverId()": "a1694a77",
    "grantPauser(address)": "09c1d95f",
    "implementation()": "5c60da1b",
    "isPaused()": "b187bd26",
    "isPauser(address)": "46fbf68e",
    "nextUserId()": "a1e6a255",
    "pause()": "8456cb59",
    "proposeNewAdmin(address)": "a6376746",
    "proposedAdmin()": "32f751ec",
    "proxiableUUID()": "52d1902d",
    "renounceAdmin()": "8bad0c0a",
    "revokePauser(address)": "7fe76df0",
    "totalSplitsWeight()": "8a7f97a6",
    "unpause()": "3f4ba83a",
    "upgradeTo(address)": "3659cfe6",
    "upgradeToAndCall(address,bytes)": "4f1ef286"
  },
  "id": 58
}