{
  "abi": [
    {
      "inputs": [
        {
          "internalType": "contract BeamsHub",
          "name": "_beamsHub",
          "type": "address"
        },
        {
          "internalType": "address",
          "name": "forwarder",
          "type": "address"
        },
        {
          "internalType": "uint32",
          "name": "_driverId",
          "type": "uint32"
        }
      ],
      "stateMutability": "nonpayable",
      "type": "constructor"
    },
    {
      "anonymous": false,
      "inputs": [
        {
          "indexed": false,
          "internalType": "address",
          "name": "previousAdmin",
          "type": "address"
        },
        {
          "indexed": false,
          "internalType": "address",
          "name": "newAdmin",
          "type": "address"
        }
      ],
      "name": "AdminChanged",
      "type": "event"
    },
    {
      "anonymous": false,
      "inputs": [
        {
          "indexed": true,
          "internalType": "address",
          "name": "owner",
          "type": "address"
        },
        {
          "indexed": true,
          "internalType": "address",
          "name": "approved",
          "type": "address"
        },
        {
          "indexed": true,
          "internalType": "uint256",
          "name": "tokenId",
          "type": "uint256"
        }
      ],
      "name": "Approval",
      "type": "event"
    },
    {
      "anonymous": false,
      "inputs": [
        {
          "indexed": true,
          "internalType": "address",
          "name": "owner",
          "type": "address"
        },
        {
          "indexed": true,
          "internalType": "address",
          "name": "operator",
          "type": "address"
        },
        {
          "indexed": false,
          "internalType": "bool",
          "name": "approved",
          "type": "bool"
        }
      ],
      "name": "ApprovalForAll",
      "type": "event"
    },
    {
      "anonymous": false,
      "inputs": [
        {
          "indexed": true,
          "internalType": "address",
          "name": "beacon",
          "type": "address"
        }
      ],
      "name": "BeaconUpgraded",
      "type": "event"
    },
    {
      "anonymous": false,
      "inputs": [
        {
          "indexed": true,
          "internalType": "address",
          "name": "currentAdmin",
          "type": "address"
        },
        {
          "indexed": true,
          "internalType": "address",
          "name": "newAdmin",
          "type": "address"
        }
      ],
      "name": "NewAdminProposed",
      "type": "event"
    },
    {
      "anonymous": false,
      "inputs": [
        {
          "indexed": true,
          "internalType": "address",
          "name": "pauser",
          "type": "address"
        }
      ],
      "name": "Paused",
      "type": "event"
    },
    {
      "anonymous": false,
      "inputs": [
        {
          "indexed": true,
          "internalType": "address",
          "name": "pauser",
          "type": "address"
        },
        {
          "indexed": true,
          "internalType": "address",
          "name": "admin",
          "type": "address"
        }
      ],
      "name": "PauserGranted",
      "type": "event"
    },
    {
      "anonymous": false,
      "inputs": [
        {
          "indexed": true,
          "internalType": "address",
          "name": "pauser",
          "type": "address"
        },
        {
          "indexed": true,
          "internalType": "address",
          "name": "admin",
          "type": "address"
        }
      ],
      "name": "PauserRevoked",
      "type": "event"
    },
    {
      "anonymous": false,
      "inputs": [
        {
          "indexed": true,
          "internalType": "address",
          "name": "from",
          "type": "address"
        },
        {
          "indexed": true,
          "internalType": "address",
          "name": "to",
          "type": "address"
        },
        {
          "indexed": true,
          "internalType": "uint256",
          "name": "tokenId",
          "type": "uint256"
        }
      ],
      "name": "Transfer",
      "type": "event"
    },
    {
      "anonymous": false,
      "inputs": [
        {
          "indexed": true,
          "internalType": "address",
          "name": "pauser",
          "type": "address"
        }
      ],
      "name": "Unpaused",
      "type": "event"
    },
    {
      "anonymous": false,
      "inputs": [
        {
          "indexed": true,
          "internalType": "address",
          "name": "implementation",
          "type": "address"
        }
      ],
      "name": "Upgraded",
      "type": "event"
    },
    {
      "inputs": [],
      "name": "acceptAdmin",
      "outputs": [],
      "stateMutability": "nonpayable",
      "type": "function"
    },
    {
      "inputs": [],
      "name": "admin",
      "outputs": [
        {
          "internalType": "address",
          "name": "",
          "type": "address"
        }
      ],
      "stateMutability": "view",
      "type": "function"
    },
    {
      "inputs": [],
      "name": "allPausers",
      "outputs": [
        {
          "internalType": "address[]",
          "name": "pausersList",
          "type": "address[]"
        }
      ],
      "stateMutability": "view",
      "type": "function"
    },
    {
      "inputs": [
        {
          "internalType": "address",
          "name": "to",
          "type": "address"
        },
        {
          "internalType": "uint256",
          "name": "tokenId",
          "type": "uint256"
        }
      ],
      "name": "approve",
      "outputs": [],
      "stateMutability": "nonpayable",
      "type": "function"
    },
    {
      "inputs": [
        {
          "internalType": "address",
          "name": "owner",
          "type": "address"
        }
      ],
      "name": "balanceOf",
      "outputs": [
        {
          "internalType": "uint256",
          "name": "",
          "type": "uint256"
        }
      ],
      "stateMutability": "view",
      "type": "function"
    },
    {
      "inputs": [],
      "name": "beamsHub",
      "outputs": [
        {
          "internalType": "contract BeamsHub",
          "name": "",
          "type": "address"
        }
      ],
      "stateMutability": "view",
      "type": "function"
    },
    {
      "inputs": [
        {
          "internalType": "uint256",
          "name": "tokenId",
          "type": "uint256"
        }
      ],
      "name": "burn",
      "outputs": [],
      "stateMutability": "nonpayable",
      "type": "function"
    },
    {
      "inputs": [
        {
          "internalType": "address",
          "name": "minter",
          "type": "address"
        },
        {
          "internalType": "uint64",
          "name": "salt",
          "type": "uint64"
        }
      ],
      "name": "calcTokenIdWithSalt",
      "outputs": [
        {
          "internalType": "uint256",
          "name": "tokenId",
          "type": "uint256"
        }
      ],
      "stateMutability": "view",
      "type": "function"
    },
    {
      "inputs": [
        {
          "internalType": "uint256",
          "name": "tokenId",
          "type": "uint256"
        },
        {
          "internalType": "contract IERC20",
          "name": "erc20",
          "type": "address"
        },
        {
          "internalType": "address",
          "name": "transferTo",
          "type": "address"
        }
      ],
      "name": "collect",
      "outputs": [
        {
          "internalType": "uint128",
          "name": "amt",
          "type": "uint128"
        }
      ],
      "stateMutability": "nonpayable",
      "type": "function"
    },
    {
      "inputs": [],
      "name": "driverId",
      "outputs": [
        {
          "internalType": "uint32",
          "name": "",
          "type": "uint32"
        }
      ],
      "stateMutability": "view",
      "type": "function"
    },
    {
      "inputs": [
        {
          "internalType": "uint256",
          "name": "tokenId",
          "type": "uint256"
        },
        {
          "components": [
            {
              "internalType": "bytes32",
              "name": "key",
              "type": "bytes32"
            },
            {
              "internalType": "bytes",
              "name": "value",
              "type": "bytes"
            }
          ],
          "internalType": "struct UserMetadata[]",
          "name": "userMetadata",
          "type": "tuple[]"
        }
      ],
      "name": "emitUserMetadata",
      "outputs": [],
      "stateMutability": "nonpayable",
      "type": "function"
    },
    {
      "inputs": [
        {
          "internalType": "uint256",
          "name": "tokenId",
          "type": "uint256"
        }
      ],
      "name": "getApproved",
      "outputs": [
        {
          "internalType": "address",
          "name": "",
          "type": "address"
        }
      ],
      "stateMutability": "view",
      "type": "function"
    },
    {
      "inputs": [
        {
          "internalType": "uint256",
          "name": "tokenId",
          "type": "uint256"
        },
        {
          "internalType": "uint256",
          "name": "receiver",
          "type": "uint256"
        },
        {
          "internalType": "contract IERC20",
          "name": "erc20",
          "type": "address"
        },
        {
          "internalType": "uint128",
          "name": "amt",
          "type": "uint128"
        }
      ],
      "name": "give",
      "outputs": [],
      "stateMutability": "nonpayable",
      "type": "function"
    },
    {
      "inputs": [
        {
          "internalType": "address",
          "name": "pauser",
          "type": "address"
        }
      ],
      "name": "grantPauser",
      "outputs": [],
      "stateMutability": "nonpayable",
      "type": "function"
    },
    {
      "inputs": [],
      "name": "implementation",
      "outputs": [
        {
          "internalType": "address",
          "name": "",
          "type": "address"
        }
      ],
      "stateMutability": "view",
      "type": "function"
    },
    {
      "inputs": [
        {
          "internalType": "address",
          "name": "owner",
          "type": "address"
        },
        {
          "internalType": "address",
          "name": "operator",
          "type": "address"
        }
      ],
      "name": "isApprovedForAll",
      "outputs": [
        {
          "internalType": "bool",
          "name": "",
          "type": "bool"
        }
      ],
      "stateMutability": "view",
      "type": "function"
    },
    {
      "inputs": [],
      "name": "isPaused",
      "outputs": [
        {
          "internalType": "bool",
          "name": "",
          "type": "bool"
        }
      ],
      "stateMutability": "view",
      "type": "function"
    },
    {
      "inputs": [
        {
          "internalType": "address",
          "name": "pauser",
          "type": "address"
        }
      ],
      "name": "isPauser",
      "outputs": [
        {
          "internalType": "bool",
          "name": "isAddrPauser",
          "type": "bool"
        }
      ],
      "stateMutability": "view",
      "type": "function"
    },
    {
      "inputs": [
        {
          "internalType": "address",
          "name": "minter",
          "type": "address"
        },
        {
          "internalType": "uint64",
          "name": "salt",
          "type": "uint64"
        }
      ],
      "name": "isSaltUsed",
      "outputs": [
        {
          "internalType": "bool",
          "name": "isUsed",
          "type": "bool"
        }
      ],
      "stateMutability": "view",
      "type": "function"
    },
    {
      "inputs": [
        {
          "internalType": "address",
          "name": "forwarder",
          "type": "address"
        }
      ],
      "name": "isTrustedForwarder",
      "outputs": [
        {
          "internalType": "bool",
          "name": "",
          "type": "bool"
        }
      ],
      "stateMutability": "view",
      "type": "function"
    },
    {
      "inputs": [
        {
          "internalType": "address",
          "name": "to",
          "type": "address"
        },
        {
          "components": [
            {
              "internalType": "bytes32",
              "name": "key",
              "type": "bytes32"
            },
            {
              "internalType": "bytes",
              "name": "value",
              "type": "bytes"
            }
          ],
          "internalType": "struct UserMetadata[]",
          "name": "userMetadata",
          "type": "tuple[]"
        }
      ],
      "name": "mint",
      "outputs": [
        {
          "internalType": "uint256",
          "name": "tokenId",
          "type": "uint256"
        }
      ],
      "stateMutability": "nonpayable",
      "type": "function"
    },
    {
      "inputs": [
        {
          "internalType": "uint64",
          "name": "salt",
          "type": "uint64"
        },
        {
          "internalType": "address",
          "name": "to",
          "type": "address"
        },
        {
          "components": [
            {
              "internalType": "bytes32",
              "name": "key",
              "type": "bytes32"
            },
            {
              "internalType": "bytes",
              "name": "value",
              "type": "bytes"
            }
          ],
          "internalType": "struct UserMetadata[]",
          "name": "userMetadata",
          "type": "tuple[]"
        }
      ],
      "name": "mintWithSalt",
      "outputs": [
        {
          "internalType": "uint256",
          "name": "tokenId",
          "type": "uint256"
        }
      ],
      "stateMutability": "nonpayable",
      "type": "function"
    },
    {
      "inputs": [],
      "name": "name",
      "outputs": [
        {
          "internalType": "string",
          "name": "",
          "type": "string"
        }
      ],
      "stateMutability": "pure",
      "type": "function"
    },
    {
      "inputs": [],
      "name": "nextTokenId",
      "outputs": [
        {
          "internalType": "uint256",
          "name": "tokenId",
          "type": "uint256"
        }
      ],
      "stateMutability": "view",
      "type": "function"
    },
    {
      "inputs": [
        {
          "internalType": "uint256",
          "name": "tokenId",
          "type": "uint256"
        }
      ],
      "name": "ownerOf",
      "outputs": [
        {
          "internalType": "address",
          "name": "",
          "type": "address"
        }
      ],
      "stateMutability": "view",
      "type": "function"
    },
    {
      "inputs": [],
      "name": "pause",
      "outputs": [],
      "stateMutability": "nonpayable",
      "type": "function"
    },
    {
      "inputs": [
        {
          "internalType": "address",
          "name": "newAdmin",
          "type": "address"
        }
      ],
      "name": "proposeNewAdmin",
      "outputs": [],
      "stateMutability": "nonpayable",
      "type": "function"
    },
    {
      "inputs": [],
      "name": "proposedAdmin",
      "outputs": [
        {
          "internalType": "address",
          "name": "",
          "type": "address"
        }
      ],
      "stateMutability": "view",
      "type": "function"
    },
    {
      "inputs": [],
      "name": "proxiableUUID",
      "outputs": [
        {
          "internalType": "bytes32",
          "name": "",
          "type": "bytes32"
        }
      ],
      "stateMutability": "view",
      "type": "function"
    },
    {
      "inputs": [],
      "name": "renounceAdmin",
      "outputs": [],
      "stateMutability": "nonpayable",
      "type": "function"
    },
    {
      "inputs": [
        {
          "internalType": "address",
          "name": "pauser",
          "type": "address"
        }
      ],
      "name": "revokePauser",
      "outputs": [],
      "stateMutability": "nonpayable",
      "type": "function"
    },
    {
      "inputs": [
        {
          "internalType": "address",
          "name": "to",
          "type": "address"
        },
        {
          "components": [
            {
              "internalType": "bytes32",
              "name": "key",
              "type": "bytes32"
            },
            {
              "internalType": "bytes",
              "name": "value",
              "type": "bytes"
            }
          ],
          "internalType": "struct UserMetadata[]",
          "name": "userMetadata",
          "type": "tuple[]"
        }
      ],
      "name": "safeMint",
      "outputs": [
        {
          "internalType": "uint256",
          "name": "tokenId",
          "type": "uint256"
        }
      ],
      "stateMutability": "nonpayable",
      "type": "function"
    },
    {
      "inputs": [
        {
          "internalType": "uint64",
          "name": "salt",
          "type": "uint64"
        },
        {
          "internalType": "address",
          "name": "to",
          "type": "address"
        },
        {
          "components": [
            {
              "internalType": "bytes32",
              "name": "key",
              "type": "bytes32"
            },
            {
              "internalType": "bytes",
              "name": "value",
              "type": "bytes"
            }
          ],
          "internalType": "struct UserMetadata[]",
          "name": "userMetadata",
          "type": "tuple[]"
        }
      ],
      "name": "safeMintWithSalt",
      "outputs": [
        {
          "internalType": "uint256",
          "name": "tokenId",
          "type": "uint256"
        }
      ],
      "stateMutability": "nonpayable",
      "type": "function"
    },
    {
      "inputs": [
        {
          "internalType": "address",
          "name": "from",
          "type": "address"
        },
        {
          "internalType": "address",
          "name": "to",
          "type": "address"
        },
        {
          "internalType": "uint256",
          "name": "tokenId",
          "type": "uint256"
        }
      ],
      "name": "safeTransferFrom",
      "outputs": [],
      "stateMutability": "nonpayable",
      "type": "function"
    },
    {
      "inputs": [
        {
          "internalType": "address",
          "name": "from",
          "type": "address"
        },
        {
          "internalType": "address",
          "name": "to",
          "type": "address"
        },
        {
          "internalType": "uint256",
          "name": "tokenId",
          "type": "uint256"
        },
        {
          "internalType": "bytes",
          "name": "data",
          "type": "bytes"
        }
      ],
      "name": "safeTransferFrom",
      "outputs": [],
      "stateMutability": "nonpayable",
      "type": "function"
    },
    {
      "inputs": [
        {
          "internalType": "address",
          "name": "operator",
          "type": "address"
        },
        {
          "internalType": "bool",
          "name": "approved",
          "type": "bool"
        }
      ],
      "name": "setApprovalForAll",
      "outputs": [],
      "stateMutability": "nonpayable",
      "type": "function"
    },
    {
      "inputs": [
        {
          "internalType": "uint256",
          "name": "tokenId",
          "type": "uint256"
        },
        {
          "internalType": "contract IERC20",
          "name": "erc20",
          "type": "address"
        },
        {
          "components": [
            {
              "internalType": "uint256",
              "name": "userId",
              "type": "uint256"
            },
            {
              "internalType": "BeamsConfig",
              "name": "config",
              "type": "uint256"
            }
          ],
          "internalType": "struct BeamsReceiver[]",
          "name": "currReceivers",
          "type": "tuple[]"
        },
        {
          "internalType": "int128",
          "name": "balanceDelta",
          "type": "int128"
        },
        {
          "components": [
            {
              "internalType": "uint256",
              "name": "userId",
              "type": "uint256"
            },
            {
              "internalType": "BeamsConfig",
              "name": "config",
              "type": "uint256"
            }
          ],
          "internalType": "struct BeamsReceiver[]",
          "name": "newReceivers",
          "type": "tuple[]"
        },
        {
          "internalType": "uint32",
          "name": "maxEndHint1",
          "type": "uint32"
        },
        {
          "internalType": "uint32",
          "name": "maxEndHint2",
          "type": "uint32"
        },
        {
          "internalType": "address",
          "name": "transferTo",
          "type": "address"
        }
      ],
      "name": "setBeams",
      "outputs": [
        {
          "internalType": "int128",
          "name": "realBalanceDelta",
          "type": "int128"
        }
      ],
      "stateMutability": "nonpayable",
      "type": "function"
    },
    {
      "inputs": [
        {
          "internalType": "uint256",
          "name": "tokenId",
          "type": "uint256"
        },
        {
          "components": [
            {
              "internalType": "uint256",
              "name": "userId",
              "type": "uint256"
            },
            {
              "internalType": "uint32",
              "name": "weight",
              "type": "uint32"
            }
          ],
          "internalType": "struct SplitsReceiver[]",
          "name": "receivers",
          "type": "tuple[]"
        }
      ],
      "name": "setSplits",
      "outputs": [],
      "stateMutability": "nonpayable",
      "type": "function"
    },
    {
      "inputs": [
        {
          "internalType": "bytes4",
          "name": "interfaceId",
          "type": "bytes4"
        }
      ],
      "name": "supportsInterface",
      "outputs": [
        {
          "internalType": "bool",
          "name": "",
          "type": "bool"
        }
      ],
      "stateMutability": "view",
      "type": "function"
    },
    {
      "inputs": [],
      "name": "symbol",
      "outputs": [
        {
          "internalType": "string",
          "name": "",
          "type": "string"
        }
      ],
      "stateMutability": "pure",
      "type": "function"
    },
    {
      "inputs": [
        {
          "internalType": "uint256",
          "name": "tokenId",
          "type": "uint256"
        }
      ],
      "name": "tokenURI",
      "outputs": [
        {
          "internalType": "string",
          "name": "",
          "type": "string"
        }
      ],
      "stateMutability": "view",
      "type": "function"
    },
    {
      "inputs": [
        {
          "internalType": "address",
          "name": "from",
          "type": "address"
        },
        {
          "internalType": "address",
          "name": "to",
          "type": "address"
        },
        {
          "internalType": "uint256",
          "name": "tokenId",
          "type": "uint256"
        }
      ],
      "name": "transferFrom",
      "outputs": [],
      "stateMutability": "nonpayable",
      "type": "function"
    },
    {
      "inputs": [],
      "name": "unpause",
      "outputs": [],
      "stateMutability": "nonpayable",
      "type": "function"
    },
    {
      "inputs": [
        {
          "internalType": "address",
          "name": "newImplementation",
          "type": "address"
        }
      ],
      "name": "upgradeTo",
      "outputs": [],
      "stateMutability": "nonpayable",
      "type": "function"
    },
    {
      "inputs": [
        {
          "internalType": "address",
          "name": "newImplementation",
          "type": "address"
        },
        {
          "internalType": "bytes",
          "name": "data",
          "type": "bytes"
        }
      ],
      "name": "upgradeToAndCall",
      "outputs": [],
      "stateMutability": "payable",
      "type": "function"
    }
  ],
  "bytecode": {
    "object": "0x3060a05261018060405260176101409081527f656970313936372e6d616e616765642e73746f7261676500000000000000000061016052620000419062000139565b60c05260408051808201909152601981527f656970313936372e6e66744472697665722e73746f72616765000000000000006020820152620000839062000139565b610120523480156200009457600080fd5b50604051620054ba380380620054ba833981016040819052620000b79162000171565b6040805160208082018352600080835283519182019093528281528492620000e0838262000272565b506001620000ef828262000272565b5050506001600160a01b031660805260016200010a60c05190565b805460ff19169115159190911790556001600160a01b039290921660e0525063ffffffff166101005262000360565b805160208201206000906200015290610400906200033e565b92915050565b6001600160a01b03811681146200016e57600080fd5b50565b6000806000606084860312156200018757600080fd5b8351620001948162000158565b6020850151909350620001a78162000158565b604085015190925063ffffffff81168114620001c257600080fd5b809150509250925092565b634e487b7160e01b600052604160045260246000fd5b600181811c90821680620001f857607f821691505b6020821081036200021957634e487b7160e01b600052602260045260246000fd5b50919050565b601f8211156200026d57600081815260208120601f850160051c81016020861015620002485750805b601f850160051c820191505b81811015620002695782815560010162000254565b5050505b505050565b81516001600160401b038111156200028e576200028e620001cd565b620002a6816200029f8454620001e3565b846200021f565b602080601f831160018114620002de5760008415620002c55750858301515b600019600386901b1c1916600185901b17855562000269565b600085815260208120601f198616915b828110156200030f57888601518255948401946001909101908401620002ee565b50858210156200032e5787850151600019600388901b60f8161c191681555b5050505050600190811b01905550565b818103818111156200015257634e487b7160e01b600052601160045260246000fd5b60805160a05160c05160e0516101005161012051614fba620005006000396000818161059d015281816107920152818161297d01528181612a220152612f670152600081816106ff015281816107df0152818161093e01528181612a8d0152612fb5015260008181610aa701528181610cee01528181611c1d01528181611cbd0152818161219601528181612275015281816126a801528181612b2c015261328e0152600081816104a9015281816109c401528181610bc501528181610d8801528181610e6c01528181610f1e01528181610f5101528181610ff4015281816110840152818161127f01528181611388015281816113f90152818161146d015281816114ea0152818161156c015281816115940152818161192f01528181611a5701528181611ae601528181611df401528181611f0f01528181611f8101528181612066015281816122dc015281816123ed015281816124490152818161253a0152612beb01526000818161110e015281816111a40152818161169d01528181611733015261180101526000818161066701526134650152614fba6000f3fe6080604052600436106102f25760003560e01c80635c60da1b1161018f5780638db86dee116100e1578063b88d4fde1161008a578063e985e9c511610064578063e985e9c514610a4c578063eff8c2e514610a95578063f851a44014610ac957600080fd5b8063b88d4fde146109ec578063c87b56dd14610a0c578063d9e0107014610a2c57600080fd5b8063a22cb465116100bb578063a22cb46514610975578063a637674614610995578063b187bd26146109b557600080fd5b80638db86dee146108a557806395d89b41146108e6578063a1694a771461092c57600080fd5b806375794a3c116101435780637fe76df01161011d5780637fe76df01461085b5780638456cb591461087b5780638bad0c0a1461089057600080fd5b806375794a3c146107835780637660467e14610808578063799d58741461082857600080fd5b8063674cb2fa11610174578063674cb2fa146106cc5780636d837f171461074357806370a082311461076357600080fd5b80635c60da1b146106975780636352211e146106ac57600080fd5b80633659cfe61161024857806345c2cda1116101fc5780634f1ef286116101d65780634f1ef2861461062257806352d1902d14610635578063572b6c051461064a57600080fd5b806345c2cda11461056f57806346fbf68e146105e25780634dc4d4d61461060257600080fd5b80633f4ba83a1161022d5780633f4ba83a1461051a57806342842e0e1461052f57806342966c681461054f57600080fd5b80633659cfe6146104da57806337420a88146104fa57600080fd5b806309c1d95f116102aa5780630e18b681116102845780630e18b6811461046557806323b872dd1461047a57806332f751ec1461049a57600080fd5b806309c1d95f146103f557806309d48a94146104155780630d0f1af11461043757600080fd5b806306fdde03116102db57806306fdde031461034e578063081812fc1461039d578063095ea7b3146103d557600080fd5b806301ffc9a7146102f757806302cfc7531461032c575b600080fd5b34801561030357600080fd5b50610317610312366004614391565b610ade565b60405190151581526020015b60405180910390f35b34801561033857600080fd5b5061034c6103473660046143fa565b610bc3565b005b34801561035a57600080fd5b5060408051808201909152601181527f4265616d73487562206964656e7469747900000000000000000000000000000060208201525b60405161032391906144b4565b3480156103a957600080fd5b506103bd6103b83660046144c7565b610d5f565b6040516001600160a01b039091168152602001610323565b3480156103e157600080fd5b5061034c6103f03660046144f5565b610d86565b34801561040157600080fd5b5061034c610410366004614521565b610e06565b34801561042157600080fd5b5061042a610f17565b604051610323919061453e565b34801561044357600080fd5b506104576104523660046145ed565b610f4a565b604051908152602001610323565b34801561047157600080fd5b5061034c610fec565b34801561048657600080fd5b5061034c610495366004614650565b611082565b3480156104a657600080fd5b507f0000000000000000000000000000000000000000000000000000000000000000600301546001600160a01b03166103bd565b3480156104e657600080fd5b5061034c6104f5366004614521565b611104565b34801561050657600080fd5b50610457610515366004614691565b611278565b34801561052657600080fd5b5061034c611318565b34801561053b57600080fd5b5061034c61054a366004614650565b61146b565b34801561055b57600080fd5b5061034c61056a3660046144c7565b6114e8565b34801561057b57600080fd5b5061031761058a3660046146d9565b6001600160a01b039190911660009081527f00000000000000000000000000000000000000000000000000000000000000006001016020908152604080832067ffffffffffffffff9094168352929052205460ff1690565b3480156105ee57600080fd5b506103176105fd366004614521565b611563565b34801561060e57600080fd5b5061034c61061d36600461470e565b611592565b61034c61063036600461481b565b611693565b34801561064157600080fd5b506104576117f4565b34801561065657600080fd5b50610317610665366004614521565b7f00000000000000000000000000000000000000000000000000000000000000006001600160a01b0390811691161490565b3480156106a357600080fd5b506103bd6118b9565b3480156106b857600080fd5b506103bd6106c73660046144c7565b6118c3565b3480156106d857600080fd5b506104576106e73660046146d9565b67ffffffffffffffff166001600160a01b03919091167f000000000000000000000000000000000000000000000000000000000000000060a01b77ffffffff0000000000000000000000000000000000000000161760401b1790565b34801561074f57600080fd5b5061045761075e366004614691565b611928565b34801561076f57600080fd5b5061045761077e366004614521565b6119b6565b34801561078f57600080fd5b507f00000000000000000000000000000000000000000000000000000000000000005467ffffffffffffffff167fffffffff000000000000000000000000000000000000000000000000000000007f000000000000000000000000000000000000000000000000000000000000000060e01b1617610457565b34801561081457600080fd5b506104576108233660046145ed565b611a50565b34801561083457600080fd5b5061084861084336600461488e565b611adf565b604051600f9190910b8152602001610323565b34801561086757600080fd5b5061034c610876366004614521565b611d8e565b34801561088757600080fd5b5061034c611e9f565b34801561089c57600080fd5b5061034c611ff6565b3480156108b157600080fd5b506108c56108c0366004614965565b61205f565b6040516fffffffffffffffffffffffffffffffff9091168152602001610323565b3480156108f257600080fd5b5060408051808201909152600381527f44484900000000000000000000000000000000000000000000000000000000006020820152610390565b34801561093857600080fd5b506109607f000000000000000000000000000000000000000000000000000000000000000081565b60405163ffffffff9091168152602001610323565b34801561098157600080fd5b5061034c6109903660046149b5565b6122da565b3480156109a157600080fd5b5061034c6109b0366004614521565b612356565b3480156109c157600080fd5b507f00000000000000000000000000000000000000000000000000000000000000005460ff16610317565b3480156109f857600080fd5b5061034c610a073660046149ee565b612447565b348015610a1857600080fd5b50610390610a273660046144c7565b6124c5565b348015610a3857600080fd5b5061034c610a47366004614a78565b612538565b348015610a5857600080fd5b50610317610a67366004614ac2565b6001600160a01b03918216600090815260056020908152604080832093909416825291909152205460ff1690565b348015610aa157600080fd5b506103bd7f000000000000000000000000000000000000000000000000000000000000000081565b348015610ad557600080fd5b506103bd61270b565b60007fffffffff0000000000000000000000000000000000000000000000000000000082167f80ac58cd000000000000000000000000000000000000000000000000000000001480610b7157507fffffffff0000000000000000000000000000000000000000000000000000000082167f5b5e139f00000000000000000000000000000000000000000000000000000000145b80610bbd57507f01ffc9a7000000000000000000000000000000000000000000000000000000007fffffffff000000000000000000000000000000000000000000000000000000008316145b92915050565b7f00000000000000000000000000000000000000000000000000000000000000005460ff1615610c3a5760405162461bcd60e51b815260206004820152600f60248201527f436f6e747261637420706175736564000000000000000000000000000000000060448201526064015b60405180910390fd5b82610c4c610c46612715565b8261271f565b610cbe5760405162461bcd60e51b815260206004820152602d60248201527f4552433732313a2063616c6c6572206973206e6f7420746f6b656e206f776e6560448201527f72206f7220617070726f766564000000000000000000000000000000000000006064820152608401610c31565b6040517f02cfc7530000000000000000000000000000000000000000000000000000000081526001600160a01b037f000000000000000000000000000000000000000000000000000000000000000016906302cfc75390610d2790879087908790600401614af0565b600060405180830381600087803b158015610d4157600080fd5b505af1158015610d55573d6000803e3d6000fd5b5050505050505050565b6000610d6a8261279d565b506000908152600460205260409020546001600160a01b031690565b7f00000000000000000000000000000000000000000000000000000000000000005460ff1615610df85760405162461bcd60e51b815260206004820152600f60248201527f436f6e74726163742070617573656400000000000000000000000000000000006044820152606401610c31565b610e028282612801565b5050565b33610e0f61270b565b6001600160a01b031614610e655760405162461bcd60e51b815260206004820152601460248201527f43616c6c6572206e6f74207468652061646d696e0000000000000000000000006044820152606401610c31565b610e9260017f0000000000000000000000000000000000000000000000000000000000000000018261293f565b610ede5760405162461bcd60e51b815260206004820152601b60248201527f4164647265737320616c726561647920697320612070617573657200000000006044820152606401610c31565b60405133906001600160a01b038316907fbb7fff487ca65a5841fe463ac801812d2aeb3c2059f6e44b2b3cdab8ee7c3db090600090a350565b6060610f457f0000000000000000000000000000000000000000000000000000000000000000600101612954565b905090565b6000610f777f00000000000000000000000000000000000000000000000000000000000000005460ff1690565b15610fc45760405162461bcd60e51b815260206004820152600f60248201527f436f6e74726163742070617573656400000000000000000000000000000000006044820152606401610c31565b610fcd85612961565b9050610fd98482612ad4565b610fe4818484612aee565b949350505050565b3361102160037f000000000000000000000000000000000000000000000000000000000000000001546001600160a01b031690565b6001600160a01b0316146110775760405162461bcd60e51b815260206004820152601d60248201527f43616c6c6572206e6f74207468652070726f706f7365642061646d696e0000006044820152606401610c31565b61108033612b9c565b565b7f00000000000000000000000000000000000000000000000000000000000000005460ff16156110f45760405162461bcd60e51b815260206004820152600f60248201527f436f6e74726163742070617573656400000000000000000000000000000000006044820152606401610c31565b6110ff838383612c8d565b505050565b6001600160a01b037f00000000000000000000000000000000000000000000000000000000000000001630036111a25760405162461bcd60e51b815260206004820152602c60248201527f46756e6374696f6e206d7573742062652063616c6c6564207468726f7567682060448201527f64656c656761746563616c6c00000000000000000000000000000000000000006064820152608401610c31565b7f00000000000000000000000000000000000000000000000000000000000000006001600160a01b03166111d4612d15565b6001600160a01b0316146112505760405162461bcd60e51b815260206004820152602c60248201527f46756e6374696f6e206d7573742062652063616c6c6564207468726f7567682060448201527f6163746976652070726f787900000000000000000000000000000000000000006064820152608401610c31565b61125981612d48565b6040805160008082526020820190925261127591839190612da7565b50565b60006112a57f00000000000000000000000000000000000000000000000000000000000000005460ff1690565b156112f25760405162461bcd60e51b815260206004820152600f60248201527f436f6e74726163742070617573656400000000000000000000000000000000006044820152606401610c31565b6112fa612f65565b90506113068482613010565b611311818484612aee565b9392505050565b3361132161270b565b6001600160a01b0316148061133a575061133a33611563565b6113865760405162461bcd60e51b815260206004820181905260248201527f43616c6c6572206e6f74207468652061646d696e206f722061207061757365726044820152606401610c31565b7f00000000000000000000000000000000000000000000000000000000000000005460ff166113f75760405162461bcd60e51b815260206004820152601360248201527f436f6e7472616374206e6f7420706175736564000000000000000000000000006044820152606401610c31565b7f000000000000000000000000000000000000000000000000000000000000000080547fffffffffffffffffffffffffffffffffffffffffffffffffffffffffffffff0016905560405133907f5db9ee0a495bf2e6ff9c91a7834c1ba4fdd244a5e8aa4e537bd38aeae4b073aa90600090a2565b7f00000000000000000000000000000000000000000000000000000000000000005460ff16156114dd5760405162461bcd60e51b815260206004820152600f60248201527f436f6e74726163742070617573656400000000000000000000000000000000006044820152606401610c31565b6110ff8383836131b3565b7f00000000000000000000000000000000000000000000000000000000000000005460ff161561155a5760405162461bcd60e51b815260206004820152600f60248201527f436f6e74726163742070617573656400000000000000000000000000000000006044820152606401610c31565b611275816131ce565b6000610bbd60017f00000000000000000000000000000000000000000000000000000000000000000183613254565b7f00000000000000000000000000000000000000000000000000000000000000005460ff16156116045760405162461bcd60e51b815260206004820152600f60248201527f436f6e74726163742070617573656400000000000000000000000000000000006044820152606401610c31565b82611610610c46612715565b6116825760405162461bcd60e51b815260206004820152602d60248201527f4552433732313a2063616c6c6572206973206e6f7420746f6b656e206f776e6560448201527f72206f7220617070726f766564000000000000000000000000000000000000006064820152608401610c31565b61168d848484612aee565b50505050565b6001600160a01b037f00000000000000000000000000000000000000000000000000000000000000001630036117315760405162461bcd60e51b815260206004820152602c60248201527f46756e6374696f6e206d7573742062652063616c6c6564207468726f7567682060448201527f64656c656761746563616c6c00000000000000000000000000000000000000006064820152608401610c31565b7f00000000000000000000000000000000000000000000000000000000000000006001600160a01b0316611763612d15565b6001600160a01b0316146117df5760405162461bcd60e51b815260206004820152602c60248201527f46756e6374696f6e206d7573742062652063616c6c6564207468726f7567682060448201527f6163746976652070726f787900000000000000000000000000000000000000006064820152608401610c31565b6117e882612d48565b610e0282826001612da7565b6000306001600160a01b037f000000000000000000000000000000000000000000000000000000000000000016146118945760405162461bcd60e51b815260206004820152603860248201527f555550535570677261646561626c653a206d757374206e6f742062652063616c60448201527f6c6564207468726f7567682064656c656761746563616c6c00000000000000006064820152608401610c31565b507f360894a13ba1a3210667c828492db98dca3e2076cc3735a920a3ca505d382bbc90565b6000610f45612d15565b6000818152600260205260408120546001600160a01b031680610bbd5760405162461bcd60e51b815260206004820152601860248201527f4552433732313a20696e76616c696420746f6b656e20494400000000000000006044820152606401610c31565b60006119557f00000000000000000000000000000000000000000000000000000000000000005460ff1690565b156119a25760405162461bcd60e51b815260206004820152600f60248201527f436f6e74726163742070617573656400000000000000000000000000000000006044820152606401610c31565b6119aa612f65565b90506113068482612ad4565b60006001600160a01b038216611a345760405162461bcd60e51b815260206004820152602960248201527f4552433732313a2061646472657373207a65726f206973206e6f74206120766160448201527f6c6964206f776e657200000000000000000000000000000000000000000000006064820152608401610c31565b506001600160a01b031660009081526003602052604090205490565b6000611a7d7f00000000000000000000000000000000000000000000000000000000000000005460ff1690565b15611aca5760405162461bcd60e51b815260206004820152600f60248201527f436f6e74726163742070617573656400000000000000000000000000000000006044820152606401610c31565b611ad385612961565b9050610fd98482613010565b6000611b0c7f00000000000000000000000000000000000000000000000000000000000000005460ff1690565b15611b595760405162461bcd60e51b815260206004820152600f60248201527f436f6e74726163742070617573656400000000000000000000000000000000006044820152606401610c31565b8a611b65610c46612715565b611bd75760405162461bcd60e51b815260206004820152602d60248201527f4552433732313a2063616c6c6572206973206e6f7420746f6b656e206f776e6560448201527f72206f7220617070726f766564000000000000000000000000000000000000006064820152608401610c31565b600088600f0b1315611bed57611bed8b89613276565b6040517f0c55b5ec0000000000000000000000000000000000000000000000000000000081526001600160a01b037f00000000000000000000000000000000000000000000000000000000000000001690630c55b5ec90611c62908f908f908f908f908f908f908f908f908f90600401614b8e565b6020604051808303816000875af1158015611c81573d6000803e3d6000fd5b505050506040513d601f19601f82011682018060405250810190611ca59190614bfa565b9150600082600f0b1215611d7f576001600160a01b037f00000000000000000000000000000000000000000000000000000000000000001663d9caed128c85611ced86614c46565b6040517fffffffff0000000000000000000000000000000000000000000000000000000060e086901b1681526001600160a01b0393841660048201529290911660248301526fffffffffffffffffffffffffffffffff166044820152606401600060405180830381600087803b158015611d6657600080fd5b505af1158015611d7a573d6000803e3d6000fd5b505050505b509a9950505050505050505050565b33611d9761270b565b6001600160a01b031614611ded5760405162461bcd60e51b815260206004820152601460248201527f43616c6c6572206e6f74207468652061646d696e0000000000000000000000006044820152606401610c31565b611e1a60017f000000000000000000000000000000000000000000000000000000000000000001826132c5565b611e665760405162461bcd60e51b815260206004820152601760248201527f41646472657373206973206e6f742061207061757365720000000000000000006044820152606401610c31565b60405133906001600160a01b038316907ffd55549bcbafb9531a61db3cfb88d1cca64e215b12def56e6ea913fe1ac91fd290600090a350565b33611ea861270b565b6001600160a01b03161480611ec15750611ec133611563565b611f0d5760405162461bcd60e51b815260206004820181905260248201527f43616c6c6572206e6f74207468652061646d696e206f722061207061757365726044820152606401610c31565b7f00000000000000000000000000000000000000000000000000000000000000005460ff1615611f7f5760405162461bcd60e51b815260206004820152600f60248201527f436f6e74726163742070617573656400000000000000000000000000000000006044820152606401610c31565b7f000000000000000000000000000000000000000000000000000000000000000080547fffffffffffffffffffffffffffffffffffffffffffffffffffffffffffffff0016600117905560405133907f62e78cea01bee320cd4e420270b5ea74000d11b0c9f74754ebdbfc544b05a25890600090a2565b33611fff61270b565b6001600160a01b0316146120555760405162461bcd60e51b815260206004820152601460248201527f43616c6c6572206e6f74207468652061646d696e0000000000000000000000006044820152606401610c31565b6110806000612b9c565b600061208c7f00000000000000000000000000000000000000000000000000000000000000005460ff1690565b156120d95760405162461bcd60e51b815260206004820152600f60248201527f436f6e74726163742070617573656400000000000000000000000000000000006044820152606401610c31565b836120e5610c46612715565b6121575760405162461bcd60e51b815260206004820152602d60248201527f4552433732313a2063616c6c6572206973206e6f7420746f6b656e206f776e6560448201527f72206f7220617070726f766564000000000000000000000000000000000000006064820152608401610c31565b6040517f8d3c100a000000000000000000000000000000000000000000000000000000008152600481018690526001600160a01b0385811660248301527f00000000000000000000000000000000000000000000000000000000000000001690638d3c100a906044016020604051808303816000875af11580156121df573d6000803e3d6000fd5b505050506040513d601f19601f820116820180604052508101906122039190614c84565b91506fffffffffffffffffffffffffffffffff8216156122d2576040517fd9caed120000000000000000000000000000000000000000000000000000000081526001600160a01b03858116600483015284811660248301526fffffffffffffffffffffffffffffffff841660448301527f0000000000000000000000000000000000000000000000000000000000000000169063d9caed1290606401600060405180830381600087803b1580156122b957600080fd5b505af11580156122cd573d6000803e3d6000fd5b505050505b509392505050565b7f00000000000000000000000000000000000000000000000000000000000000005460ff161561234c5760405162461bcd60e51b815260206004820152600f60248201527f436f6e74726163742070617573656400000000000000000000000000000000006044820152606401610c31565b610e0282826132da565b3361235f61270b565b6001600160a01b0316146123b55760405162461bcd60e51b815260206004820152601460248201527f43616c6c6572206e6f74207468652061646d696e0000000000000000000000006044820152606401610c31565b6040516001600160a01b0382169033907fed2d93e7985747cd1a4a093c2cc3bb73d0f177b81bdfd26020e8f20a97e8112e90600090a37f000000000000000000000000000000000000000000000000000000000000000060030180547fffffffffffffffffffffffff0000000000000000000000000000000000000000166001600160a01b0392909216919091179055565b7f00000000000000000000000000000000000000000000000000000000000000005460ff16156124b95760405162461bcd60e51b815260206004820152600f60248201527f436f6e74726163742070617573656400000000000000000000000000000000006044820152606401610c31565b61168d848484846132ec565b60606124d08261279d565b60006124e760408051602081019091526000815290565b905060008151116125075760405180602001604052806000815250611311565b806125118461337b565b604051602001612522929190614ca1565b6040516020818303038152906040529392505050565b7f00000000000000000000000000000000000000000000000000000000000000005460ff16156125aa5760405162461bcd60e51b815260206004820152600f60248201527f436f6e74726163742070617573656400000000000000000000000000000000006044820152606401610c31565b836125b6610c46612715565b6126285760405162461bcd60e51b815260206004820152602d60248201527f4552433732313a2063616c6c6572206973206e6f7420746f6b656e206f776e6560448201527f72206f7220617070726f766564000000000000000000000000000000000000006064820152608401610c31565b6fffffffffffffffffffffffffffffffff82161561264a5761264a8383613276565b6040517fd9e0107000000000000000000000000000000000000000000000000000000000815260048101869052602481018590526001600160a01b0384811660448301526fffffffffffffffffffffffffffffffff841660648301527f0000000000000000000000000000000000000000000000000000000000000000169063d9e0107090608401600060405180830381600087803b1580156126ec57600080fd5b505af1158015612700573d6000803e3d6000fd5b505050505050505050565b6000610f45613439565b6000610f45613461565b60008061272b836118c3565b9050806001600160a01b0316846001600160a01b0316148061277257506001600160a01b0380821660009081526005602090815260408083209388168352929052205460ff165b80610fe45750836001600160a01b031661278b84610d5f565b6001600160a01b031614949350505050565b6000818152600260205260409020546001600160a01b03166112755760405162461bcd60e51b815260206004820152601860248201527f4552433732313a20696e76616c696420746f6b656e20494400000000000000006044820152606401610c31565b600061280c826118c3565b9050806001600160a01b0316836001600160a01b0316036128955760405162461bcd60e51b815260206004820152602160248201527f4552433732313a20617070726f76616c20746f2063757272656e74206f776e6560448201527f72000000000000000000000000000000000000000000000000000000000000006064820152608401610c31565b806001600160a01b03166128a7612715565b6001600160a01b031614806128c357506128c381610a67612715565b6129355760405162461bcd60e51b815260206004820152603d60248201527f4552433732313a20617070726f76652063616c6c6572206973206e6f7420746f60448201527f6b656e206f776e6572206f7220617070726f76656420666f7220616c6c0000006064820152608401610c31565b6110ff83836134d1565b6000611311836001600160a01b038416613557565b60606000611311836135a6565b60008061296c612715565b6001600160a01b03811660009081527f00000000000000000000000000000000000000000000000000000000000000006001016020908152604080832067ffffffffffffffff8816845290915290205490915060ff1615612a0f5760405162461bcd60e51b815260206004820152601c60248201527f4552433732313a20746f6b656e20616c7265616479206d696e746564000000006044820152606401610c31565b6001600160a01b038116600081815260017f000000000000000000000000000000000000000000000000000000000000000081016020908152604080842067ffffffffffffffff891680865292529283902080547fffffffffffffffffffffffffffffffffffffffffffffffffffffffffffffff00169092179091557f000000000000000000000000000000000000000000000000000000000000000060a01b77ffffffff000000000000000000000000000000000000000016909217901b17611311565b610e02828260405180602001604052806000815250613602565b6000819003612afc57505050565b6040517f4dc4d4d60000000000000000000000000000000000000000000000000000000081526001600160a01b037f00000000000000000000000000000000000000000000000000000000000000001690634dc4d4d690612b6590869086908690600401614cd0565b600060405180830381600087803b158015612b7f57600080fd5b505af1158015612b93573d6000803e3d6000fd5b50505050505050565b7f7e644d79422f17c01e4894b5f4f588d331ebfa28653d42ae832dc59e38c9798f612bc561270b565b604080516001600160a01b03928316815291841660208301520160405180910390a160037f00000000000000000000000000000000000000000000000000000000000000000180547fffffffffffffffffffffffff0000000000000000000000000000000000000000169055807fb53127684a568b3173ae13b9f8a6016e243e63b6e8ee1178d6a717850b5d61035b80547fffffffffffffffffffffffff0000000000000000000000000000000000000000166001600160a01b039290921691909117905550565b612c98610c46612715565b612d0a5760405162461bcd60e51b815260206004820152602d60248201527f4552433732313a2063616c6c6572206973206e6f7420746f6b656e206f776e6560448201527f72206f7220617070726f766564000000000000000000000000000000000000006064820152608401610c31565b6110ff83838361368b565b60007f360894a13ba1a3210667c828492db98dca3e2076cc3735a920a3ca505d382bbc5b546001600160a01b0316919050565b33612d5161270b565b6001600160a01b0316146112755760405162461bcd60e51b815260206004820152601460248201527f43616c6c6572206e6f74207468652061646d696e0000000000000000000000006044820152606401610c31565b7f4910fdfa16fed3260ed0e7147f7cc6da11a60208b5b9406d12a635614ffd91435460ff1615612dda576110ff836138ea565b826001600160a01b03166352d1902d6040518163ffffffff1660e01b8152600401602060405180830381865afa925050508015612e52575060408051601f3d9081017fffffffffffffffffffffffffffffffffffffffffffffffffffffffffffffffe0168201909252612e4f91810190614e24565b60015b612ec45760405162461bcd60e51b815260206004820152602e60248201527f45524331393637557067726164653a206e657720696d706c656d656e7461746960448201527f6f6e206973206e6f7420555550530000000000000000000000000000000000006064820152608401610c31565b7f360894a13ba1a3210667c828492db98dca3e2076cc3735a920a3ca505d382bbc8114612f595760405162461bcd60e51b815260206004820152602960248201527f45524331393637557067726164653a20756e737570706f727465642070726f7860448201527f6961626c655555494400000000000000000000000000000000000000000000006064820152608401610c31565b506110ff83838361398e565b7f0000000000000000000000000000000000000000000000000000000000000000805467ffffffffffffffff167fffffffff000000000000000000000000000000000000000000000000000000007f000000000000000000000000000000000000000000000000000000000000000060e01b168117916000612fe683614e3d565b91906101000a81548167ffffffffffffffff021916908367ffffffffffffffff1602179055505090565b6001600160a01b0382166130665760405162461bcd60e51b815260206004820181905260248201527f4552433732313a206d696e7420746f20746865207a65726f20616464726573736044820152606401610c31565b6000818152600260205260409020546001600160a01b0316156130cb5760405162461bcd60e51b815260206004820152601c60248201527f4552433732313a20746f6b656e20616c7265616479206d696e746564000000006044820152606401610c31565b6000818152600260205260409020546001600160a01b0316156131305760405162461bcd60e51b815260206004820152601c60248201527f4552433732313a20746f6b656e20616c7265616479206d696e746564000000006044820152606401610c31565b6001600160a01b038216600081815260036020908152604080832080546001019055848352600290915280822080547fffffffffffffffffffffffff0000000000000000000000000000000000000000168417905551839291907fddf252ad1be2c89b69c2b068fc378daa952ba7f163c4a11628f55a4df523b3ef908290a45050565b6110ff83838360405180602001604052806000815250612447565b6131d9610c46612715565b61324b5760405162461bcd60e51b815260206004820152602d60248201527f4552433732313a2063616c6c6572206973206e6f7420746f6b656e206f776e6560448201527f72206f7220617070726f766564000000000000000000000000000000000000006064820152608401610c31565b611275816139b3565b6001600160a01b03811660009081526001830160205260408120541515611311565b610e02613281612715565b6001600160a01b038416907f00000000000000000000000000000000000000000000000000000000000000006fffffffffffffffffffffffffffffffff8516613a7e565b6000611311836001600160a01b038416613b06565b610e026132e5612715565b8383613bf9565b6132fd6132f7612715565b8361271f565b61336f5760405162461bcd60e51b815260206004820152602d60248201527f4552433732313a2063616c6c6572206973206e6f7420746f6b656e206f776e6560448201527f72206f7220617070726f766564000000000000000000000000000000000000006064820152608401610c31565b61168d84848484613ce5565b6060600061338883613d6e565b600101905060008167ffffffffffffffff8111156133a8576133a8614741565b6040519080825280601f01601f1916602001820160405280156133d2576020820181803683370190505b5090508181016020015b7fffffffffffffffffffffffffffffffffffffffffffffffffffffffffffffffff017f3031323334353637383961626364656600000000000000000000000000000000600a86061a8153600a85049450846133dc57509392505050565b60007fb53127684a568b3173ae13b9f8a6016e243e63b6e8ee1178d6a717850b5d6103612d39565b60007f00000000000000000000000000000000000000000000000000000000000000006001600160a01b03163314801561349c575060143610155b156134cc57507fffffffffffffffffffffffffffffffffffffffffffffffffffffffffffffffec36013560601c90565b503390565b600081815260046020526040902080547fffffffffffffffffffffffff0000000000000000000000000000000000000000166001600160a01b038416908117909155819061351e826118c3565b6001600160a01b03167f8c5be1e5ebec7d5bd14f71427d1e84f3dd0314c0f7b2291e5b200ac8c7c3b92560405160405180910390a45050565b600081815260018301602052604081205461359e57508154600181810184556000848152602080822090930184905584548482528286019093526040902091909155610bbd565b506000610bbd565b6060816000018054806020026020016040519081016040528092919081815260200182805480156135f657602002820191906000526020600020905b8154815260200190600101908083116135e2575b50505050509050919050565b61360c8383613010565b6136196000848484613e50565b6110ff5760405162461bcd60e51b815260206004820152603260248201527f4552433732313a207472616e7366657220746f206e6f6e20455243373231526560448201527f63656976657220696d706c656d656e74657200000000000000000000000000006064820152608401610c31565b826001600160a01b031661369e826118c3565b6001600160a01b03161461371a5760405162461bcd60e51b815260206004820152602560248201527f4552433732313a207472616e736665722066726f6d20696e636f72726563742060448201527f6f776e65720000000000000000000000000000000000000000000000000000006064820152608401610c31565b6001600160a01b0382166137955760405162461bcd60e51b8152602060048201526024808201527f4552433732313a207472616e7366657220746f20746865207a65726f2061646460448201527f72657373000000000000000000000000000000000000000000000000000000006064820152608401610c31565b826001600160a01b03166137a8826118c3565b6001600160a01b0316146138245760405162461bcd60e51b815260206004820152602560248201527f4552433732313a207472616e736665722066726f6d20696e636f72726563742060448201527f6f776e65720000000000000000000000000000000000000000000000000000006064820152608401610c31565b600081815260046020908152604080832080547fffffffffffffffffffffffff00000000000000000000000000000000000000009081169091556001600160a01b038781168086526003855283862080547fffffffffffffffffffffffffffffffffffffffffffffffffffffffffffffffff01905590871680865283862080546001019055868652600290945282852080549092168417909155905184937fddf252ad1be2c89b69c2b068fc378daa952ba7f163c4a11628f55a4df523b3ef91a4505050565b6001600160a01b0381163b6139675760405162461bcd60e51b815260206004820152602d60248201527f455243313936373a206e657720696d706c656d656e746174696f6e206973206e60448201527f6f74206120636f6e7472616374000000000000000000000000000000000000006064820152608401610c31565b807f360894a13ba1a3210667c828492db98dca3e2076cc3735a920a3ca505d382bbc612c54565b61399783613ffa565b6000825111806139a45750805b156110ff5761168d838361403a565b60006139be826118c3565b90506139c9826118c3565b600083815260046020908152604080832080547fffffffffffffffffffffffff00000000000000000000000000000000000000009081169091556001600160a01b0385168085526003845282852080547fffffffffffffffffffffffffffffffffffffffffffffffffffffffffffffffff0190558785526002909352818420805490911690555192935084927fddf252ad1be2c89b69c2b068fc378daa952ba7f163c4a11628f55a4df523b3ef908390a45050565b604080516001600160a01b0385811660248301528416604482015260648082018490528251808303909101815260849091019091526020810180517bffffffffffffffffffffffffffffffffffffffffffffffffffffffff167f23b872dd0000000000000000000000000000000000000000000000000000000017905261168d90859061405f565b60008181526001830160205260408120548015613bef576000613b2a600183614e64565b8554909150600090613b3e90600190614e64565b9050818114613ba3576000866000018281548110613b5e57613b5e614e77565b9060005260206000200154905080876000018481548110613b8157613b81614e77565b6000918252602080832090910192909255918252600188019052604090208390555b8554869080613bb457613bb4614ea6565b600190038181906000526020600020016000905590558560010160008681526020019081526020016000206000905560019350505050610bbd565b6000915050610bbd565b816001600160a01b0316836001600160a01b031603613c5a5760405162461bcd60e51b815260206004820152601960248201527f4552433732313a20617070726f766520746f2063616c6c6572000000000000006044820152606401610c31565b6001600160a01b0383811660008181526005602090815260408083209487168084529482529182902080547fffffffffffffffffffffffffffffffffffffffffffffffffffffffffffffff001686151590811790915591519182527f17307eab39ab6107e8899845ad3d59bd9653f200f220920489ca2b5937696c31910160405180910390a3505050565b613cf084848461368b565b613cfc84848484613e50565b61168d5760405162461bcd60e51b815260206004820152603260248201527f4552433732313a207472616e7366657220746f206e6f6e20455243373231526560448201527f63656976657220696d706c656d656e74657200000000000000000000000000006064820152608401610c31565b6000807a184f03e93ff9f4daa797ed6e38ed64bf6a1f0100000000000000008310613db7577a184f03e93ff9f4daa797ed6e38ed64bf6a1f010000000000000000830492506040015b6d04ee2d6d415b85acef81000000008310613de3576d04ee2d6d415b85acef8100000000830492506020015b662386f26fc100008310613e0157662386f26fc10000830492506010015b6305f5e1008310613e19576305f5e100830492506008015b6127108310613e2d57612710830492506004015b60648310613e3f576064830492506002015b600a8310610bbd5760010192915050565b60006001600160a01b0384163b15613ff257836001600160a01b031663150b7a02613e79612715565b8786866040518563ffffffff1660e01b8152600401613e9b9493929190614ed5565b6020604051808303816000875af1925050508015613ef4575060408051601f3d9081017fffffffffffffffffffffffffffffffffffffffffffffffffffffffffffffffe0168201909252613ef191810190614f07565b60015b613fa7573d808015613f22576040519150601f19603f3d011682016040523d82523d6000602084013e613f27565b606091505b508051600003613f9f5760405162461bcd60e51b815260206004820152603260248201527f4552433732313a207472616e7366657220746f206e6f6e20455243373231526560448201527f63656976657220696d706c656d656e74657200000000000000000000000000006064820152608401610c31565b805181602001fd5b7fffffffff00000000000000000000000000000000000000000000000000000000167f150b7a0200000000000000000000000000000000000000000000000000000000149050610fe4565b506001610fe4565b614003816138ea565b6040516001600160a01b038216907fbc7cd75a20ee27fd9adebab32041f755214dbc6bffa90cc0225b39da2e5c2d3b90600090a250565b60606113118383604051806060016040528060278152602001614f5e60279139614147565b60006140b4826040518060400160405280602081526020017f5361666545524332303a206c6f772d6c6576656c2063616c6c206661696c6564815250856001600160a01b03166141bf9092919063ffffffff16565b90508051600014806140d55750808060200190518101906140d59190614f24565b6110ff5760405162461bcd60e51b815260206004820152602a60248201527f5361666545524332303a204552433230206f7065726174696f6e20646964206e60448201527f6f742073756363656564000000000000000000000000000000000000000000006064820152608401610c31565b6060600080856001600160a01b0316856040516141649190614f41565b600060405180830381855af49150503d806000811461419f576040519150601f19603f3d011682016040523d82523d6000602084013e6141a4565b606091505b50915091506141b5868383876141ce565b9695505050505050565b6060610fe48484600085614247565b6060831561423d578251600003614236576001600160a01b0385163b6142365760405162461bcd60e51b815260206004820152601d60248201527f416464726573733a2063616c6c20746f206e6f6e2d636f6e74726163740000006044820152606401610c31565b5081610fe4565b610fe48383614339565b6060824710156142bf5760405162461bcd60e51b815260206004820152602660248201527f416464726573733a20696e73756666696369656e742062616c616e636520666f60448201527f722063616c6c00000000000000000000000000000000000000000000000000006064820152608401610c31565b600080866001600160a01b031685876040516142db9190614f41565b60006040518083038185875af1925050503d8060008114614318576040519150601f19603f3d011682016040523d82523d6000602084013e61431d565b606091505b509150915061432e878383876141ce565b979650505050505050565b8151156143495781518083602001fd5b8060405162461bcd60e51b8152600401610c3191906144b4565b7fffffffff000000000000000000000000000000000000000000000000000000008116811461127557600080fd5b6000602082840312156143a357600080fd5b813561131181614363565b60008083601f8401126143c057600080fd5b50813567ffffffffffffffff8111156143d857600080fd5b6020830191508360208260061b85010111156143f357600080fd5b9250929050565b60008060006040848603121561440f57600080fd5b83359250602084013567ffffffffffffffff81111561442d57600080fd5b614439868287016143ae565b9497909650939450505050565b60005b83811015614461578181015183820152602001614449565b50506000910152565b60008151808452614482816020860160208601614446565b601f017fffffffffffffffffffffffffffffffffffffffffffffffffffffffffffffffe0169290920160200192915050565b602081526000611311602083018461446a565b6000602082840312156144d957600080fd5b5035919050565b6001600160a01b038116811461127557600080fd5b6000806040838503121561450857600080fd5b8235614513816144e0565b946020939093013593505050565b60006020828403121561453357600080fd5b8135611311816144e0565b6020808252825182820181905260009190848201906040850190845b8181101561457f5783516001600160a01b03168352928401929184019160010161455a565b50909695505050505050565b803567ffffffffffffffff811681146145a357600080fd5b919050565b60008083601f8401126145ba57600080fd5b50813567ffffffffffffffff8111156145d257600080fd5b6020830191508360208260051b85010111156143f357600080fd5b6000806000806060858703121561460357600080fd5b61460c8561458b565b9350602085013561461c816144e0565b9250604085013567ffffffffffffffff81111561463857600080fd5b614644878288016145a8565b95989497509550505050565b60008060006060848603121561466557600080fd5b8335614670816144e0565b92506020840135614680816144e0565b929592945050506040919091013590565b6000806000604084860312156146a657600080fd5b83356146b1816144e0565b9250602084013567ffffffffffffffff8111156146cd57600080fd5b614439868287016145a8565b600080604083850312156146ec57600080fd5b82356146f7816144e0565b91506147056020840161458b565b90509250929050565b60008060006040848603121561472357600080fd5b83359250602084013567ffffffffffffffff8111156146cd57600080fd5b7f4e487b7100000000000000000000000000000000000000000000000000000000600052604160045260246000fd5b600082601f83011261478157600080fd5b813567ffffffffffffffff8082111561479c5761479c614741565b604051601f83017fffffffffffffffffffffffffffffffffffffffffffffffffffffffffffffffe0908116603f011681019082821181831017156147e2576147e2614741565b816040528381528660208588010111156147fb57600080fd5b836020870160208301376000602085830101528094505050505092915050565b6000806040838503121561482e57600080fd5b8235614839816144e0565b9150602083013567ffffffffffffffff81111561485557600080fd5b61486185828601614770565b9150509250929050565b80600f0b811461127557600080fd5b803563ffffffff811681146145a357600080fd5b6000806000806000806000806000806101008b8d0312156148ae57600080fd5b8a35995060208b01356148c0816144e0565b985060408b013567ffffffffffffffff808211156148dd57600080fd5b6148e98e838f016143ae565b909a50985060608d013591506148fe8261486b565b90965060808c0135908082111561491457600080fd5b506149218d828e016143ae565b9096509450614934905060a08c0161487a565b925061494260c08c0161487a565b915060e08b0135614952816144e0565b809150509295989b9194979a5092959850565b60008060006060848603121561497a57600080fd5b83359250602084013561498c816144e0565b9150604084013561499c816144e0565b809150509250925092565b801515811461127557600080fd5b600080604083850312156149c857600080fd5b82356149d3816144e0565b915060208301356149e3816149a7565b809150509250929050565b60008060008060808587031215614a0457600080fd5b8435614a0f816144e0565b93506020850135614a1f816144e0565b925060408501359150606085013567ffffffffffffffff811115614a4257600080fd5b614a4e87828801614770565b91505092959194509250565b6fffffffffffffffffffffffffffffffff8116811461127557600080fd5b60008060008060808587031215614a8e57600080fd5b84359350602085013592506040850135614aa7816144e0565b91506060850135614ab781614a5a565b939692955090935050565b60008060408385031215614ad557600080fd5b8235614ae0816144e0565b915060208301356149e3816144e0565b8381526040602080830182905282820184905260009190859060608501845b87811015614b40578335825263ffffffff614b2b84860161487a565b16828401529284019290840190600101614b0f565b5098975050505050505050565b8183526000602080850194508260005b85811015614b835781358752828201358388015260409687019690910190600101614b5d565b509495945050505050565b8981526001600160a01b038916602082015260e060408201526000614bb760e08301898b614b4d565b87600f0b60608401528281036080840152614bd3818789614b4d565b91505063ffffffff80851660a084015280841660c0840152509a9950505050505050505050565b600060208284031215614c0c57600080fd5b81516113118161486b565b7f4e487b7100000000000000000000000000000000000000000000000000000000600052601160045260246000fd5b600081600f0b7fffffffffffffffffffffffffffffffff800000000000000000000000000000008103614c7b57614c7b614c17565b60000392915050565b600060208284031215614c9657600080fd5b815161131181614a5a565b60008351614cb3818460208801614446565b835190830190614cc7818360208801614446565b01949350505050565b600060408083018684526020828186015281868352606092508286019050828760051b8701018860005b89811015614e14577fffffffffffffffffffffffffffffffffffffffffffffffffffffffffffffffa089840301845281357fffffffffffffffffffffffffffffffffffffffffffffffffffffffffffffffc18c3603018112614d5b57600080fd5b8b018035845285810135368290037fffffffffffffffffffffffffffffffffffffffffffffffffffffffffffffffe1018112614d9657600080fd5b01858101903567ffffffffffffffff811115614db157600080fd5b803603821315614dc057600080fd5b88878601528089860152808289870137600085820189015294860194601f017fffffffffffffffffffffffffffffffffffffffffffffffffffffffffffffffe0169093018601925090840190600101614cfa565b50909a9950505050505050505050565b600060208284031215614e3657600080fd5b5051919050565b600067ffffffffffffffff808316818103614e5a57614e5a614c17565b6001019392505050565b81810381811115610bbd57610bbd614c17565b7f4e487b7100000000000000000000000000000000000000000000000000000000600052603260045260246000fd5b7f4e487b7100000000000000000000000000000000000000000000000000000000600052603160045260246000fd5b60006001600160a01b038087168352808616602084015250836040830152608060608301526141b5608083018461446a565b600060208284031215614f1957600080fd5b815161131181614363565b600060208284031215614f3657600080fd5b8151611311816149a7565b60008251614f53818460208701614446565b919091019291505056fe416464726573733a206c6f772d6c6576656c2064656c65676174652063616c6c206661696c6564a26469706673582212208633b9f58fbde496940ac02a2c54c064e71ad63a15f32106c78c7be5978bdf0764736f6c63430008130033",
    "linkReferences": {}
  },
  "methodIdentifiers": {
    "acceptAdmin()": "0e18b681",
    "admin()": "f851a440",
    "allPausers()": "09d48a94",
    "approve(address,uint256)": "095ea7b3",
    "balanceOf(address)": "70a08231",
    "beamsHub()": "eff8c2e5",
    "burn(uint256)": "42966c68",
    "calcTokenIdWithSalt(address,uint64)": "674cb2fa",
    "collect(uint256,address,address)": "8db86dee",
    "driverId()": "a1694a77",
    "emitUserMetadata(uint256,(bytes32,bytes)[])": "4dc4d4d6",
    "getApproved(uint256)": "081812fc",
    "give(uint256,uint256,address,uint128)": "d9e01070",
    "grantPauser(address)": "09c1d95f",
    "implementation()": "5c60da1b",
    "isApprovedForAll(address,address)": "e985e9c5",
    "isPaused()": "b187bd26",
    "isPauser(address)": "46fbf68e",
    "isSaltUsed(address,uint64)": "45c2cda1",
    "isTrustedForwarder(address)": "572b6c05",
    "mint(address,(bytes32,bytes)[])": "37420a88",
    "mintWithSalt(uint64,address,(bytes32,bytes)[])": "7660467e",
    "name()": "06fdde03",
    "nextTokenId()": "75794a3c",
    "ownerOf(uint256)": "6352211e",
    "pause()": "8456cb59",
    "proposeNewAdmin(address)": "a6376746",
    "proposedAdmin()": "32f751ec",
    "proxiableUUID()": "52d1902d",
    "renounceAdmin()": "8bad0c0a",
    "revokePauser(address)": "7fe76df0",
    "safeMint(address,(bytes32,bytes)[])": "6d837f17",
    "safeMintWithSalt(uint64,address,(bytes32,bytes)[])": "0d0f1af1",
    "safeTransferFrom(address,address,uint256)": "42842e0e",
    "safeTransferFrom(address,address,uint256,bytes)": "b88d4fde",
    "setApprovalForAll(address,bool)": "a22cb465",
    "setBeams(uint256,address,(uint256,uint256)[],int128,(uint256,uint256)[],uint32,uint32,address)": "799d5874",
    "setSplits(uint256,(uint256,uint32)[])": "02cfc753",
    "supportsInterface(bytes4)": "01ffc9a7",
    "symbol()": "95d89b41",
    "tokenURI(uint256)": "c87b56dd",
    "transferFrom(address,address,uint256)": "23b872dd",
    "unpause()": "3f4ba83a",
    "upgradeTo(address)": "3659cfe6",
    "upgradeToAndCall(address,bytes)": "4f1ef286"
  },
  "id": 60
}